:020000040800F2
:10000000C80400209D0100084F05000847050008AE
:100010004B050008590200084B0B000800000000C7
:1000200000000000000000000000000015070008AC
:100030005D02000800000000C9050008050800086E
:10004000B7010008B7010008B7010008B7010008B0
:10005000B7010008B7010008B7010008B7010008A0
:10006000B7010008B7010008B7010008B701000890
:10007000B7010008B7010008B7010008B701000880
:10008000B7010008B7010008B7010008B701000870
:10009000B7010008B7010008B7010008B701000860
:1000A000B7010008B7010008B7010008B701000850
:1000B000B7010008B7010008B7010008B701000840
:1000C000B7010008B7010008B7010008B701000830
:1000D000B70100081109000851090008B70100081C
:1000E000B7010008B7010008B7010008B701000810
:1000F000B7010008B7010008B7010008B701000800
:10010000B7010008B7010008B7010008B7010008EF
:10011000B7010008B7010008B7010008B7010008DF
:10012000B7010008B7010008B7010008B7010008CF
:10013000B7010008B7010008B7010008B7010008BF
:10014000B7010008B7010008B7010008B7010008AF
:10015000B7010008B7010008B7010008B70100089F
:10016000B7010008B7010008B7010008B70100088F
:10017000B7010008B7010008B7010008B70100087F
:10018000B7010008B7010008DFF80CD000F052F802
:100190000048004715140008C8040020064880479E
:1001A00006480047FEE7FEE7FEE7FEE7FEE7FEE75C
:1001B000FEE7FEE7FEE7FEE7090800088901000800
:1001C00040EA01039B0703D009E008C9121F08C0D9
:1001D000042AFAD203E011F8013B00F8013B521E59
:1001E000F9D27047D2B201E000F8012B491EFBD2D0
:1001F00070470022F6E710B513460A460446194632
:10020000FFF7F0FF204610BD30B50B460146002039
:100210002022012409E021FA02F59D4205D303FAC8
:1002200002F5491B04FA02F52844151EA2F1010249
:10023000F1DC30BD064C074D06E0E06840F00103FC
:1002400094E8070098471034AC42F6D3FFF7A0FFBC
:10025000C0140008E014000800BFFEE7704700006B
:100260007CB5002400200190009001251CE0294667
:100270001CA000F0D1FF00F05FF8044604B17CBD83
:10028000284600F0DDFC044604B10DE06A4601A9F1
:10029000284600F069FD04461CB919A000F0BCFF17
:1002A00002E0681CC5B200BF022DE0DD00F036FEA2
:1002B000044604B1E3E700F039FD0190BDF80410F5
:1002C000022000F0BAFE044604B1D8E7BDF80400ED
:1002D00000F096FEBDF8041011A000F09DFF00BFD5
:1002E000CDE700005075742046696E676572204F37
:1002F0006E2053656E7365723A25640D0A00000026
:1003000046696E67657220697320416C726561642D
:10031000792072656769737465640D0A00000000D6
:100320004164642046696E676572204F4B2C4944D6
:100330003A25640D0A00000010B510E000F0BEFC84
:1003400020B907A000F068FF002010BD0948007820
:10035000012804D1002007490870401EF5E7EDE7A9
:10036000476574204F6E652046696E6765720D0A99
:10037000000000000400002010B5044600F048FC16
:10038000204600F0A5FE00F05FFD10BD1CB500206A
:1003900001900090002410A000F03EFFFFF7CCFF7A
:1003A000044604B11CBD012000F04AFC044604B11F
:1003B000F8E76A4601A9012000F0D6FC04461CB10A
:1003C0000BA000F029FFEDE7BDF804100DA000F030
:1003D00023FF00BFE6E700005075742046696E6792
:1003E0006572204F6E2053656E736F723A00000085
:1003F00046696E676572204E4F54204D6174636884
:100400000D0A000046696E676572204D617463686D
:100410002C2049443A25640D0A00000010B505A0BF
:1004200000F0FAFE07A000F0F7FE0BA000F0F4FECB
:1004300010BD000053656C656374206F6E65200D00
:100440000A0000003120416464204E65772046692F
:100450006E6765720D0A000032204D61746368207A
:1004600046696E6765720D0A00000000F0B50A4625
:1004700000210023002400BF3DE0012505FA01F31F
:10048000156805EA03049C4234D105684F00032631
:10049000BE40B543056015794E00B540066835434A
:1004A00005601579012D02D01579022D16D18568C8
:1004B0004F000326BE40B543856055794E00B540D8
:1004C000866835438560456801268E40B5434560A2
:1004D000456896798E40B6B235434560C5684F0091
:1004E0000326BE40B543C560D5794E00B540C66809
:1004F0003543C560491C1029BFD3F0BDF0B50023BA
:1005000000244D07ED0E02FA05F3CE1000F1200590
:1005100055F826504E07F70E0F26BE40B543CF10B4
:1005200000F1200646F82750CE1000F1200555F8BE
:10053000265045EA0304CE1000F1200545F8264078
:10054000F0BD4183704700BFFEE700BFFEE7704784
:1005500070B5002100230F22C4781CB3174C246807
:1005600004F4E064C4F5E064C4F30721C1F10404B9
:10057000E3B20A4144789C40E1B2847814402143BC
:100580000C07210E0E4C05786155047804F01F0508
:100590000124AC4005786D11AD0005F1E025C5F8EA
:1005A000004109E0047804F01F050124AC40054D2A
:1005B0000678761145F8264070BD00000CED00E08D
:1005C00000E400E080E100E07047000029B1064A45
:1005D00012680243044B1A6004E0034A1268824323
:1005E000014B1A60704700003038024029B1064ABA
:1005F00012680243044B1A6004E0034A1268824303
:10060000014B1A60704700004038024029B1064A89
:1006100012680243044B1A6004E0034A12688243E2
:10062000014B1A607047000044380240F0B50021C9
:1006300000220024022500260223324F3F6807F0E3
:100640000C0121B1042905D0082937D105E02E4F2E
:10065000076036E02D4F076033E02A4F3F1F3F68A9
:10066000C7F38056274F3F1F3F6807F03F036EB127
:10067000264FB7FBF3F7DFF88CC0ACF1040CDCF8C5
:1006800000C0CCF3881C07FB0CF40CE01E4FB7FB3A
:10069000F3F7DFF870C0ACF1040CDCF800C0CCF369
:1006A000881C07FB0CF4174F3F1F3F68C7F3014737
:1006B0007F1C7D00B4FBF5F7076002E0124F076076
:1006C00000BF00BF0F4F3F6807F0F0010909104F4E
:1006D0007A5C0768D74047600A4F3F6807F4E051EB
:1006E000890A0B4F7A5C4768D7408760054F3F689F
:1006F00007F46041490B064F7A5C4768D740C760F2
:10070000F0BD0000083802400024F40000127A0016
:1007100009000020704700000CB5002001900090F7
:100720003448006840F480303249086000BF3148E6
:10073000006800F4003000900198401C019000987F
:1007400018B90198B0F5A04FF1D12A48006800F41B
:10075000003010B10120009001E0002000900098CE
:10076000012846D123484030006840F0805021499C
:10077000403108602048006840F440401E4908604D
:100780001C48083000681B490831086008460068AA
:1007900040F4004008600846006840F4A05008603B
:1007A0001648091F0860081F006840F08070091F84
:1007B000086000BF0F48006800F000700028F9D002
:1007C00040F205700E4908600A480830006820F0C1
:1007D00003000849083108600846006840F002003C
:1007E000086000BF03480830006800F00C000828CB
:1007F000F8D10CBD0038024000700040085440079A
:10080000003C02407047000010B51548006840F4F5
:100810007000134908601348006840F00100114956
:10082000086000200F49083108600E4800680E4932
:1008300008400C4908600D48091D0860081F006841
:1008400020F48020091F0860002006490C31086050
:10085000FFF762FF4FF0006001498039086010BD6A
:1008600088ED00E000380240FFFFF6FE1030002463
:1008700010B588B0044601210846FFF7A7FE012104
:100880004804FFF7B3FE072202211F48FFF736FE98
:10089000072203211C48FFF731FE0C20069002209E
:1008A0008DF81C008DF81D0000208DF81E00012021
:1008B0008DF81F0006A91448FFF7D8FD0294002008
:1008C000ADF80C00ADF80E00ADF81000ADF8140056
:1008D0000C20ADF8120002A90C4800F0C3F8262045
:1008E0008DF8040003208DF805008DF80600012026
:1008F0008DF8070001A8FFF72BFE0121034800F047
:1009000048F808B010BD000000000240004400405C
:1009100010B540F225510B4800F054F880B1094859
:1009200000F00AF9C1B2084802680068401C064B92
:1009300018600648815440F22551024800F01AF828
:1009400010BD000000100140000000202400002025
:1009500010B500242021064800F027F838B10448DB
:1009600000F0EAF8C4B22146014800F0EAF810BDF0
:100970000044004010B50022002340F66A14A14252
:1009800000D100BF0A1201249440A3B2DC430480CA
:1009900010BD21B1828942F40052828104E0828933
:1009A0004DF6FF731A408281704702460020B1F570
:1009B000007F00D100BF13880B400BB1012000E085
:1009C0000020704770B50246002400230025002057
:1009D00040F66A16B14200D100BFC1F3421501F0E2
:1009E0001F03012606FA03F3012D02D19689334035
:1009F00006E0022D02D1168A334001E0968A334088
:100A00000C12012606FA04F41688344013B10CB116
:100A1000012000E0002070BDF0B503460024002650
:100A20000025002040F66A17B94200D100BF1846E1
:100A3000C1F3421401F01F06012707FA06F5012C45
:100A400001D10C3004E0022C01D1103000E0143050
:100A50001AB107682F43076002E00768AF430760D9
:100A6000F0BD00002DE9FF4705460E460024A146D3
:100A700000BFA046B08900B100BF2C8A24F44054C6
:100A8000F08804432C82AC8941F20C608443B08826
:100A900031890843718908430443AC81AC8A24F44A
:100AA0004074B0890443AC826846FFF7BFFD20481C
:100AB000854202D01F48854202D1DDF80C9001E04A
:100AC000DDF80890A88900F4004040B109EBC900A6
:100AD00000EB091031684900B0FBF1F707E009EBC2
:100AE000C90000EB091031688900B0FBF1F7642000
:100AF000B7FBF0F004012009642101FB1078A889FC
:100B000000F4004040B1322000EBC800B0FBF1F02F
:100B100000F00700044308E0322000EB08106421D5
:100B2000B0FBF1F000F00F0004432C81BDE8FF871B
:100B3000001001400014014001468888C0F30800FD
:100B40007047C1F308028280704700BFFEE70000D3
:100B500070B5002100230024002224480078EF28EB
:100B600003D122484078012802D04FF0FF3070BDF9
:100B70001E4880781E4D2D78A84211D11B48C078A0
:100B80001B4D6D78A8420BD118480079184DAD78EF
:100B9000A84205D115484079154DED78A84202D0FC
:100BA0004FF0FF30E3E71148007A104DED7940EA4D
:100BB00005220023002106E0881D0C4D285C184406
:100BC00083B2481C81B29142F6DD02F10800074D64
:100BD0002D5CD01D054E305C45EA00249C4202D0BD
:100BE0004FF0FF30C3E70148407AC0E724000020FF
:100BF0000500002010B5044801680448FFF7F9FA21
:100C000000200149086010BD0000002024000020E1
:100C10001CB501210420FFF7D9FC4FF400700090AF
:100C200001208DF8040000208DF805008DF80700E4
:100C300069460248FFF71AFC1CBD0000000802408C
:100C40007CB505460026002400200090019001207C
:100C50008DF8000000208DF8010004208DF80200BE
:100C600002208DF803008DF804509DF800009DF8D7
:100C7000011008449DF8021008449DF80310084430
:100C80009DF80410461830128DF80500F0B28DF86A
:100C9000060000F093F90721684600F077F94FF459
:100CA000FA7000F083FBFFF753FF044614B1A0B2C3
:100CB00000F0C2F9FFF79EFF20467CBD7CB5002501
:100CC000002400200090019001208DF800000020F9
:100CD0008DF8010003208DF8020001208DF803003B
:100CE0009DF800009DF8011008449DF8021008448A
:100CF0009DF80310451828128DF80400E8B28DF80D
:100D0000050000F05BF90621684600F03FF94FF45A
:100D1000FA7000F04BFBFFF71BFF044614B1A0B2C2
:100D200000F08AF9FFF766FF20467CBD10B500236E
:100D30000022002112E000220CE00A48405C01245D
:100D40009440204010B1581C83B201E0184610BDF9
:100D5000501C82B2082AF0DB481C81B22029EAD359
:100D6000F020F4E7A40000202DE9FE4305460E46DE
:100D700017464FF0000800240020009001900290D8
:100D800001208DF8000000208DF8010008208DF86A
:100D900002001B208DF803008DF8045000208DF810
:100DA00005008DF806008DF80700F0208DF808008A
:100DB0009DF800009DF8011008449DF802100844B9
:100DC0009DF8031008449DF8041008449DF8051090
:100DD00008449DF8061008449DF8071008449DF843
:100DE000081000EB01084FEA28208DF8090008F0F0
:100DF000FF008DF80A0000F0E1F80B21684600F0D2
:100E0000C5F84FF4967000F0D1FAFFF7A1FE044642
:100E10001CB1A0B200F010F90EE00A48C07A0949EE
:100E2000897A40EA012030800648407B0549097BE9
:100E300040EA0120388000BFFFF7DCFE2046BDE815
:100E4000FE8300002400002010B500244FF4007140
:100E50000B48FFF776FB11E00A480078552803D1CC
:100E6000FFF7C8FE002010BD641CB4F57A7F02D9DC
:100E70004FF0FF30F7E7012000F098FAECE70000B0
:100E800000080240240000207CB50025002400203A
:100E90000090019001208DF8000000208DF80100E5
:100EA00004208DF802001F208DF8030000208DF82B
:100EB00004009DF800009DF8011008449DF8021000
:100EC00008449DF8031008449DF8041045182812A2
:100ED0008DF80500E8B28DF8060000F06FF80721E4
:100EE000684600F053F84FF4967000F05FFAFFF791
:100EF0002FFE04461CB1A0B200F09EF805E02022AF
:100F000004490548FFF75CF900BFFFF773FE204670
:100F10007CBD00002E000020A40000207CB5002431
:100F2000002500200090019001208DF80000002095
:100F30008DF8010003208DF8020005208DF80300D4
:100F40009DF800009DF8011008449DF80210084427
:100F50009DF80310441820128DF80400E0B28DF8BB
:100F6000050000F02BF80621684600F00FF84FF45A
:100F7000FA7000F01BFAFFF7EBFD054615B12046AD
:100F800000F05AF8FFF736FE28467CBD70B50546DE
:100F90000E46002400BF0CE0295D0748FFF7D1FD95
:100FA00000BF80210448FFF700FD0028F9D0601C35
:100FB000C4B2B442F0DB70BD001001401CB500208B
:100FC00000900190EF208DF8000001208DF80100C5
:100FD0000A4800788DF80200084840788DF8030030
:100FE000064880788DF804000448C0788DF8050024
:100FF00006216846FFF7CAFF1CBD0000050000205F
:1010000010B50146C41700EB5474C4F3C702C417EB
:1010100000EB5474E410A0EBC404E3B2F02800DB4E
:1010200010BD0449895C01249C402143014CA1541A
:1010300000BFF5E7A40000207047FEB506460C4649
:1010400000270025002000900190029001208DF8DB
:10105000000000208DF8010006208DF802008DF8B8
:1010600003008DF8046020128DF80500E0B28DF8C1
:1010700006009DF800009DF8011008449DF802103C
:1010800008449DF8031008449DF8041008449DF896
:10109000051008449DF80610471838128DF807000F
:1010A000F8B28DF80800FFF789FF09216846FFF7BD
:1010B0006DFF4FF4967000F079F9FFF749FD054692
:1010C00015B1A8B2FFF7B8FFFFF794FD2846FEBDA3
:1010D00010B588B0044601210846FFF777FA0121D0
:1010E0001020FFF793FA4FF4C060069000208DF8AF
:1010F0001E0001208DF81F0002208DF81D008DF8C4
:101100001C0006A91B48FFF7B1F90722092119485D
:10111000FFF7F4F907220A211648FFF7EFF90294C6
:101120000020ADF80C00ADF80E00ADF81000ADF8E1
:1011300014000C20ADF8120002A90F48FFF792FC32
:10114000012240F225510C48FFF766FC01210A48B4
:10115000FFF71FFC25208DF8040001208DF8050005
:101160008DF806008DF8070001A8FFF7F1F908B027
:1011700010BD000000000240001001403EB50025F7
:101180000024002000900190029001208DF80000C2
:1011900000208DF8010007208DF8020013208DF843
:1011A000030000208DF804008DF805008DF806007E
:1011B0008DF807009DF800009DF8011008449DF887
:1011C000021008449DF8031008449DF804100844D8
:1011D0009DF8051008449DF8061008449DF8071076
:1011E000451828128DF80800E8B28DF80900FFF7BD
:1011F000E5FE0A216846FFF7C9FE4FF4967000F03D
:10120000D5F8FFF7A5FC044614B1A0B2FFF714FF10
:10121000FFF7F0FC20463EBD0FB4054B10B503A907
:10122000044A029800F018F810BC5DF814FB0000A6
:10123000ED1300082000002002E008C8121F08C1BA
:10124000002AFAD170477047002001E001C1121F47
:10125000002AFBD1704700002DE9FF4F89B09B4663
:101260000446002506E025280BD05A460B999047E6
:10127000641C6D1C20780028F5D10DB02846BDE80F
:10128000F08F0027B8460122474900E0074314F8D1
:10129000013F203B02FA03F00842F7D120782E28C4
:1012A00019D114F8010F47F004072A280ED06FF067
:1012B0002F022078A0F1300109290CD808EB880111
:1012C00002EB410100EB0108641CF2E70A98641C80
:1012D00050F8048B0A9020780028CED0642808D0DB
:1012E000692806D075281ED05A460B9990476D1C68
:1012F00058E00A994FF00A0901C90A91002802DA58
:1013000040422D2102E0390504D52B218DF8201013
:10131000012103E0F90704D02021F7E78A4608AE4F
:101320000DE00021FAE70A994FF00A0901C90A9174
:10133000F7E74946FEF768FF303106F8011D00283F
:10134000F7D1ADEB060000F12009780701D44FF08A
:101350000108C84502DDA8EB090000E00020804636
:10136000002706E008A85A46C05D0B9990476D1CFF
:101370007F1C5745F6DB04E030205A460B99904716
:101380006D1CB8F10001A8F10108F5DC05E016F8C4
:10139000010B5A460B9990476D1CB9F10001A9F158
:1013A0000109F4DC641C65E70928010007E048F244
:1013B000084100BF0A1EA1F1010399B2FAD1021E31
:1013C000A0F1010398B2F2D17047000010B50446B5
:1013D00000BF20210448FFF7E8FA0028F9D00248AE
:1013E000FFF7AAFB10BD00000044004070B50446A2
:1013F0000D46E1B20548FFF7A4FB00BF802103487A
:10140000FFF7D3FA0028F9D0204670BD0044004011
:10141000FFF7DCBF00244FF4E130FFF729FA4DF667
:101420007C50FEF7A9FF13A0FFF7F6FEFFF7A6FE1C
:1014300010B914A0FFF7F0FEFFF726FD10B915A0B4
:10144000FFF7EAFE15E0FEF7E9FF1748FFF7E0FFB8
:10145000C4B2312C02D0322C06D102E0FEF700FFDC
:1014600006E0FEF793FF03E010A0FFF7D5FE00BFF4
:1014700000BFE8E746505220496E6974204F4B0D7B
:101480000A00000050617373777264204F4B0D0A9D
:101490000000000052656164496E646578546162C1
:1014A0006C65204F4B0D0A001C0000204E6F20740D
:1014B000686973206E756D6265720D0A0000000028
:1014C000E01400080000002024000000381200088A
:1014D0000415000824000020A4040000481200089D
:1014E0000000000000FFFFFFFF00000000010203FA
:1014F00004010203040607080900000000000000C0
:0415000000000000E7
:040000050800018965
:00000001FF
