:020000040800F2
:1000000078060020290200083D0400083504000895
:1000100039040008E3020008990600080000000007
:10002000000000000000000000000000FD040008C7
:10003000E702000800000000B90400082D060008CF
:10004000430200084302000843020008430200087C
:100050004302000843020008E902000843020008C6
:10006000430200084302000843020008430200085C
:10007000430200084302000843020008430200084C
:10008000430200084302000843020008430200083C
:10009000430200084302000843020008430200082C
:1000A000430200084302000843020008430200081C
:1000B000430200084302000843020008430200080C
:1000C00043020008430200084302000843020008FC
:1000D00043020008430200084302000843020008EC
:1000E00043020008430200084302000843020008DC
:1000F00043020008430200084302000843020008CC
:1001000043020008430200084302000843020008BB
:1001100043020008430200084302000843020008AB
:10012000430200084302000843020008430200089B
:10013000430200084302000843020008430200088B
:10014000430200084302000843020008430200087B
:10015000430200084302000843020008430200086B
:10016000430200084302000843020008430200085B
:10017000430200084302000843020008430200084B
:10018000430200084302000800F002F800F03CF8C7
:100190000AA090E8000C82448344AAF10107DA45E2
:1001A00001D100F031F8AFF2090EBAE80F0013F0F8
:1001B000010F18BFFB1A43F0010318476006000047
:1001C00080060000103A24BF78C878C1FAD85207D8
:1001D00024BF30C830C144BF04680C6070470000C1
:1001E0000023002400250026103A28BF78C1FBD840
:1001F000520728BF30C148BF0B6070471FB500F0E1
:1002000007FB1FBD10B510BD00F031F81146FFF718
:10021000F5FF00F053FA00F04FF803B4FFF7F2FFD8
:1002200003BC00F057F80000094880470948004720
:10023000FEE7FEE7FEE7FEE7FEE7FEE7FEE7FEE796
:10024000FEE7FEE704480549054A064B70470000F3
:100250003106000889010008780000207806002097
:10026000780200207802002070477047704775467A
:1002700000F02CF8AE4605006946534620F0070012
:10028000854618B020B5FFF7DDFFBDE820404FF0F0
:1002900000064FF000074FF000084FF0000B21F070
:1002A0000701AC46ACE8C009ACE8C009ACE8C0093D
:1002B000ACE8C0098D46704710B50446AFF3008026
:1002C0002046BDE81040FFF7A8BF00000048704777
:1002D0001800002001491820ABBEFEE726000200EE
:1002E000704700BFFEE7704710B5012000F006F828
:1002F00064200149088010BD1400002001490860F5
:1003000070470000143C0140002123498279002AF3
:100310003AD00A46126803689A430B461A600A1DCF
:10032000126803689A430B1D1A60027911440A6827
:1003300003681A430A60184A0832126803689A432D
:10034000154B08331A601A1D126803689A43124B42
:100350000C331A604279102A0ED11A1F12680368F2
:100360001A430D4B08331A601A1D126803681A43AA
:10037000094B0C331A600DE00749427911440A68B1
:1003800003681A430A6005E0027911440A680368A9
:100390009A430A6070470000003C0140F0B50A46ED
:1003A00000210023002400BF3DE0012505FA01F3F0
:1003B000156805EA03049C4234D105684F00032602
:1003C000BE40B543056015794E00B540066835431B
:1003D00005601579012D02D01579022D16D1856899
:1003E0004F000326BE40B543856055794E00B540A9
:1003F000866835438560456801268E40B543456073
:10040000456896798E40B6B235434560C5684F0061
:100410000326BE40B543C560D5794E00B540C668D9
:100420003543C560491C1029BFD3F0BD41837047D7
:100430000183704700BFFEE700BFFEE77047000082
:1004400070B5002100230F22C4781CB3174C246818
:1004500004F4E064C4F5E064C4F30721C1F10404CA
:10046000E3B20A4144789C40E1B2847814402143CD
:100470000C07210E0E4C05786155047804F01F0519
:100480000124AC4005786D11AD0005F1E025C5F8FB
:10049000004109E0047804F01F050124AC40054D3B
:1004A0000678761145F8264070BD00000CED00E09E
:1004B00000E400E080E100E07047000029B1064A56
:1004C00012680243044B1A6004E0034A1268824334
:1004D000014B1A60704700003038024029B1064ACB
:1004E00012680243044B1A6004E0034A1268824314
:1004F000014B1A607047000044380240704700000A
:1005000030B500228B071C0F0F2303FA04F20B4BAC
:100510008C1053F824309343084C8D1044F8253048
:1005200023468C1053F824308C07240F00FA04F46F
:100530002343024C8D1044F8253030BD083801406B
:100540000CB50020019000903448006840F48030E1
:100550003249086000BF3148006800F40030009064
:100560000198401C0190009818B90198B0F5A04F6F
:10057000F1D12A48006800F4003010B10120009049
:1005800001E0002000900098012846D12348403027
:10059000006840F0805021494031086020480068E0
:1005A00040F440401E4908601C48083000681B4960
:1005B000083108600846006840F4004008600846BA
:1005C000006840F4A05008601648091F0860081F22
:1005D000006840F08070091F086000BF0F48006885
:1005E00000F000700028F9D040F205700E49086054
:1005F0000A480830006820F0030008490831086004
:100600000846006840F00200086000BF0348083058
:10061000006800F00C000828F8D10CBD003802403A
:100620000070004008544007003C02407047000042
:1006300010B51548006840F470001349086013486D
:10064000006840F001001149086000200F4908319E
:1006500008600E4800680E4908400C4908600D48C3
:10066000091D0860081F006820F48020091F086029
:10067000002006490C310860FFF762FF4FF0006070
:1006800001498039086010BD88ED00E00038024063
:10069000FFFFF6FE1030002400BFFEE707E048F23F
:1006A000084100BF0A1EA1F1010399B2FAD1021E4E
:1006B000A0F1010398B2F2D170470000012102209D
:1006C000FFF7FCFE23204D4908600120087100203F
:1006D0008871012048710020C87123214848FFF724
:1006E000A7FE46494648FFF759FE23214448FFF735
:1006F0009DFE01210846FFF7E1FE4FF480703F495F
:1007000008600120087100208871012048710020D4
:10071000C8714FF480713B48FFF78AFE374939486A
:10072000FFF73CFE4FF480713648FFF781FE4FF42F
:10073000FA7401210220FFF7C1FE23202F4908602F
:100740000120087100208871012048710020C871C3
:100750002B48FFF723FE01210846FFF7AFFE0121DA
:100760008803FFF7BBFE01202449086000200871C0
:1007700001204871C8712348FFF710FE0021084688
:10078000FFF7BEFE012020490860002008710C2000
:100790004871012088710846FFF7B6FD06201B4905
:1007A000087000204870022088700120C870084638
:1007B000FFF746FE20E020211148FFF737FE032116
:1007C0000F48FFF735FE2046FFF768FF01210C4870
:1007D000FFF72CFE22210A48FFF72AFE2046FFF7EA
:1007E0005DFF02210648FFF721FE21210448FFF7A3
:1007F0001FFE2046FFF752FFDDE70000000000204B
:1008000000040240000002400C000020080000200C
:100810004FF04070E1EE100A704700003C080008FD
:100820000000002018000000C4010008540800085F
:100830001800002060060000E00100080000000031
:1008400000000000000000000000000000000000A8
:04085000F4010000AF
:040000050800018965
:00000001FF
