:020000040800F2
:10000000B00500209D0100084107000839070008DD
:100010003D07000843060008770C000800000000B8
:10002000000000000000000000000000E9080008D7
:100030004706000800000000BD070008D9090008B5
:10004000B7010008B7010008B7010008B7010008B0
:10005000B7010008B7010008B7010008B7010008A0
:10006000B7010008B7010008B7010008B701000890
:10007000B7010008B7010008B7010008B701000880
:10008000B7010008B7010008B7010008B701000870
:10009000B7010008B7010008B7010008B701000860
:1000A000B7010008B7010008B7010008B701000850
:1000B000B7010008B7010008B7010008B701000840
:1000C000B7010008B7010008B7010008B701000830
:1000D000B7010008B7010008F10A0008B7010008DD
:1000E000B7010008B7010008B7010008B701000810
:1000F000B7010008B7010008B7010008B701000800
:10010000B7010008B7010008B7010008B7010008EF
:10011000B7010008B7010008B7010008B7010008DF
:10012000B7010008B7010008B7010008B7010008CF
:10013000B7010008B7010008B7010008B7010008BF
:10014000B7010008B7010008B7010008B7010008AF
:10015000B7010008B7010008B7010008B70100089F
:10016000B7010008B7010008B7010008B70100088F
:10017000B7010008B7010008B7010008B70100087F
:10018000B7010008B7010008DFF80CD000F018FA3A
:1001900000480047AD130008B0050020064880471E
:1001A00006480047FEE7FEE7FEE7FEE7FEE7FEE75C
:1001B000FEE7FEE7FEE7FEE7DD090008890100082B
:1001C000D2B201E000F8012B491EFBD27047002299
:1001D000F6E710B513460A4604461946FFF7F0FF46
:1001E000204610BD2DE9FE4F804681EA0300C00F76
:1001F0000C46009021F0004123F00045B8EB0200CE
:10020000A94105D24046214690461C460B4602466F
:1002100023F00040104347D0270DC7F30A00C3F373
:100220000A510290401A019040286BDAC3F3130080
:1002300040F4801B0098924620B10023D2EB030AC1
:1002400063EB0B0B01985946C0F14002504600F099
:1002500028F906460D4650465946019A00F040F9E5
:1002600010EB08006141002487EA115284EAE77329
:100270001A4340D0009A62B3019A012A4FEA07520A
:1002800015DC001B61EB02014FF0004202EA07524D
:10029000CDE90042001C41F5801132462B4600F0AA
:1002A00040F903B0BDE8F08F40462146F9E7001B56
:1002B00061EB0201001C41F5801300185B4120181E
:1002C000A2F5001747EB030140EAD570B6196D415E
:1002D00011E06D084FEA360645EAC0754FEA07524D
:1002E000001B61EB0201001C41F5801149084FEA37
:1002F00030000019514132462B4603B0BDE8F04FA3
:1003000000F000B90098012240000023D0EB020267
:1003100063EBE073009821464FEAE074B8EB00000D
:1003200061EB0401E9E783F000435BE781F0004102
:1003300058E72DE9FE4F81EA030404F0004421F060
:10034000004100944FF0000B23F0004350EA0104F9
:100350005ED052EA03045BD0C3F30A54C1F30A55DA
:100360002C44A4F2F3340194A0FB0254C1F3130112
:1003700041F48011C3F3130343F4801301FB0244DF
:1003800000FB034E840A970A44EA815447EA8357E4
:10039000A4FB076802958D0A05FB07854FEA932C9D
:1003A00004FB0C542705029D4FEA065847EA16370E
:1003B000B5EB08056EEB070C870E920E47EA811726
:1003C00042EA8312A7FB0201B6EB0B0164EB0004C7
:1003D0002B0D43EA0C335E1844EB1C50DA465146B1
:1003E000E7FB0201C5F313044FEA0B3343EA14534E
:1003F0004FEA0432019C43EA0603A4F10C04029480
:10040000009CCDE900B400F08CF803B0BDE8F08F9B
:1004100000200146F9E70EB5C10F80EAE0700844FC
:10042000CA07002140F233438DE80E000A460B460E
:1004300000F077F803B000BD70B5C1F30A5201F0C7
:1004400000450024C1F3130140F2FF3341F4801151
:100450009A4201DA002070BD40F233439A42A2F280
:10046000334203DC524200F02BF800E090402C4372
:10047000F1D0404270BD30B50B460146002020222D
:10048000012409E021FA02F59D4205D303FA02F5A1
:10049000491B04FA02F52844151EA2F10102F1DC01
:1004A00030BD202A04DB203A00FA02F10020704718
:1004B0009140C2F1200320FA03F3194390407047A2
:1004C000202A04DB203A21FA02F00021704721FAA9
:1004D00002F3D040C2F12002914008431946704710
:1004E000202A06DBCB17203A41FA02F043EAE073F8
:1004F00006E041FA02F3D040C2F1200291400843E5
:100500001946704710B5141E73F1000408DA401C38
:1005100041F1000192185B411A4301D120F0010022
:1005200010BD2DE9F04D92469B4611B1B1FA81F212
:1005300002E0B0FA80F220329046FFF7B2FF0446A4
:100540000F4640EA0A0041EA0B0153465A46084367
:1005500013D0114653EA010019D0C8F140025046A9
:10056000FFF7AEFF05460E46504659464246FFF796
:1005700098FF084305D0012004E020463946BDE835
:10058000F08D0020054346EAE0762C4337430A9875
:100590006305E40AA0EB08000022FD0A44EA475480
:1005A0000A3002D500200146E9E70105101969412A
:1005B000DDE9084500196941BDE8F04DA2E70000FA
:1005C000064C074D06E0E06840F0010394E80700A0
:1005D00098471034AC42F6D3FFF7DAFDDC1300087D
:1005E000FC13000870B58D1810F8014B14F00302CD
:1005F00001D110F8012B231106D110F8013B03E0C3
:1006000010F8016B01F8016B521EF9D1ABB110F873
:10061000012B04F00C048A1A0C2C03D0A2EB8412D8
:100620009B1C08E010F8014BA2EB0422F8E712F83B
:10063000014B01F8014B5B1EF9D5A942D4D3002030
:1006400070BD00BFFEE77047F0B50A4600210023E9
:10065000002400BF3DE0012505FA01F3156805EA15
:1006600003049C4234D105684F000326BE40B543C5
:10067000056015794E00B54006683543056015796B
:10068000012D02D01579022D16D185684F00032661
:10069000BE40B543856055794E00B5408668354308
:1006A0008560456801268E40B5434560456896796A
:1006B0008E40B6B235434560C5684F000326BE4044
:1006C000B543C560D5794E00B540C6683543C560B1
:1006D000491C1029BFD3F0BDF0B5002300244D07FD
:1006E000ED0E02FA05F3CE1000F1200555F8265064
:1006F0004E07F70E0F26BE40B543CF1000F120067F
:1007000046F82750CE1000F1200555F8265045EA4E
:100710000304CE1000F1200545F82640F0BD024646
:10072000002013690B400BB1012000E0002070474E
:10073000418370470183704700BFFEE700BFFEE7BB
:100740007047000070B5002100230F22C4781CB34D
:10075000174C246804F4E064C4F5E064C4F3072192
:10076000C1F10404E3B20A4144789C40E1B28478C8
:10077000144021430C07210E0E4C05786155047876
:1007800004F01F050124AC4005786D11AD0005F1A2
:10079000E025C5F8004109E0047804F01F050124B4
:1007A000AC40054D0678761145F8264070BD000036
:1007B0000CED00E000E400E080E100E070470000A4
:1007C00029B1064A12680243044B1A6004E0034A46
:1007D00012688243014B1A607047000030380240B3
:1007E00029B1064A12680243044B1A6004E0034A26
:1007F00012688243014B1A60704700004038024083
:10080000F0B5002100220024022500260223324FE9
:100810003F6807F00C0121B1042905D0082937D120
:1008200005E02E4F076036E02D4F076033E02A4F7A
:100830003F1F3F68C7F38056274F3F1F3F6807F0B1
:100840003F036EB1264FB7FBF3F7DFF88CC0ACF176
:10085000040CDCF800C0CCF3881C07FB0CF40CE0A3
:100860001E4FB7FBF3F7DFF870C0ACF1040CDCF8F7
:1008700000C0CCF3881C07FB0CF4174F3F1F3F68E8
:10088000C7F301477F1C7D00B4FBF5F7076002E06A
:10089000124F076000BF00BF0F4F3F6807F0F00125
:1008A0000909104F7A5C0768D74047600A4F3F68D4
:1008B00007F4E051890A0B4F7A5C4768D74087609C
:1008C000054F3F6807F46041490B064F7A5C476863
:1008D000D740C760F0BD0000083802400024F40093
:1008E00000127A0096010020704700000CB500202D
:1008F000019000903448006840F48030324908602C
:1009000000BF3148006800F4003000900198401C9E
:100910000190009818B90198B0F5A04FF1D12A487C
:10092000006800F4003010B10120009001E00020C8
:1009300000900098012846D123484030006840F0DC
:1009400080502149403108602048006840F4404010
:100950001E4908601C48083000681B4908310860BF
:100960000846006840F4004008600846006840F40B
:10097000A05008601648091F0860081F006840F072
:100980008070091F086000BF0F48006800F0007009
:100990000028F9D040F205700E4908600A48083076
:1009A000006820F003000849083108600846006824
:1009B00040F00200086000BF03480830006800F003
:1009C0000C000828F8D10CBD00380240007000402F
:1009D00008544007003C02407047000010B515481D
:1009E000006840F47000134908601348006840F044
:1009F00001001149086000200F49083108600E48C5
:100A000000680E4908400C4908600D48091D08603F
:100A1000081F006820F48020091F08600020064994
:100A20000C310860FFF762FF4FF000600149803928
:100A3000086010BD88ED00E000380240FFFFF6FEC0
:100A40001030002410B588B0044601210846FFF795
:100A5000B7FE01214804FFF7C3FE07220221224806
:100A6000FFF73AFE072203211F48FFF735FE0C204F
:100A7000069002208DF81C008DF81D0000208DF8D6
:100A80001E0001208DF81F0006A91748FFF7DCFDA6
:100A900002940020ADF80C00ADF80E00ADF8100087
:100AA000ADF814000C20ADF8120002A90F4800F0B8
:100AB0006FF826208DF8040003208DF805008DF8CE
:100AC000060001208DF8070001A8FFF73BFE012278
:100AD00040F22551054800F036F80121034800F0A6
:100AE00019F808B010BD00000000024000440040AA
:100AF00010B500242021064800F018F838B1044849
:100B000000F0B0F8C4B22146014800F0B0F810BDC2
:100B10000044004021B1828942F40052828104E005
:100B200082894DF6FF731A40828170470246002089
:100B3000B1F5007F00D100BF13880B400BB101203D
:100B400000E000207047F0B5034600240026002591
:100B5000002040F66A17B94200D100BF1846C1F321
:100B6000421401F01F06012707FA06F5012C01D1F6
:100B70000C3004E0022C01D1103000E014301AB126
:100B800007682F43076002E00768AF430760F0BDC6
:100B90002DE9FF4705460E460024A14600BFA046AA
:100BA000B08900B100BF2C8A24F44054F08804437B
:100BB0002C82AC8941F20C608443B08831890843AF
:100BC000718908430443AC81AC8A24F44074B08931
:100BD0000443AC826846FFF713FE2048854202D0EA
:100BE0001F48854202D1DDF80C9001E0DDF8089045
:100BF000A88900F4004040B109EBC90000EB0910DE
:100C000031684900B0FBF1F707E009EBC90000EBE0
:100C1000091031688900B0FBF1F76420B7FBF0F0F0
:100C200004012009642101FB1078A88900F4004028
:100C300040B1322000EBC800B0FBF1F000F007003B
:100C4000044308E0322000EB08106421B0FBF1F00F
:100C500000F00F0004432C81BDE8FF870010014025
:100C60000014014001468888C0F308007047C1F3B2
:100C700008028280704700BFFEE7000070B50025C3
:100C8000002410212F48FFF74AFD04462E48007823
:100C900020B1012807D0022823D11BE014B901207C
:100CA0002949087021E07CB928480068401C274980
:100CB00008600846006802280BD90020086002205E
:100CC00021490870012504E00020204908601E49E0
:100CD00008700AE00CB9012502E000201A490870EA
:100CE00003E000201849087000BF00BF012D11D19A
:100CF000174800F0BFF8002801DA284670BD1448F4
:100D000000F0FEF9124800881149888008464088A2
:100D1000C88015E00E48B0F90400401C30B90C48FA
:100D2000B0F90600401C08B92846E7E7084800F07B
:100D3000FDF94FF0FF300649088048808880C88060
:100D40002846DBE7001002408C01002088010020CB
:100D50008E0100202DE9F04F8DB0064600250024BD
:100D6000A34600200B90282101A8FFF730FAA246E5
:100D700000BF0BA90CA800F08BF9BDF8300001A949
:100D800021F81500BDF82C1006A820F81510681CD5
:100D9000C5B210213648FFF7C2FC8346BBF1000FF5
:100DA00001D10A2DE5DB0A2D04DA4FF0FF300DB03A
:100DB000BDE8F08FBDF80470B846BDF81890CA467B
:100DC000BDF804000C90BDF818000B9001241AE047
:100DD00001A830F81400B84203D201A830F814700A
:100DE00007E001A830F81400404502D901A830F806
:100DF000148001A830F81400BDF83010084480B207
:100E00000C90601CC4B20A2CE2DB01241AE006A894
:100E100030F81400484503D206A830F8149007E0D3
:100E200006A830F81400504502D906A830F814A0DE
:100E300006A830F81400BDF82C10084480B20B90BE
:100E4000601CC4B20A2CE2DBBDF83000C01BA0EB72
:100E50000800C00800B23080BDF82C00A0EB0900EB
:100E6000A0EB0A00C00800B2708000209FE70000DD
:100E70000010024010B52DED0A8B82B00446684682
:100E8000FFF768FF002805DA4FF0FF3002B0BDEC35
:100E90000A8B10BDBDF90200FFF7BDFA41EC1C0B37
:100EA0005248006800EB4000514901EB001090ED02
:100EB000021BB0EE410AF0EE610A53EC102B51EC2C
:100EC0001C0BFFF736FA41EC1A0BBDF90000FFF7D7
:100ED000A2FA41EC1C0B4548006800EB4000444975
:100EE00001EB001090ED001BB0EE410AF0EE610A3C
:100EF00053EC102B51EC1C0BFFF71BFA41EC1B0BB6
:100F000053EC1A2BFFF76EF941EC190B37480068C8
:100F100000EB4000364901EB001090ED041BB0EEF1
:100F2000410AF0EE610A53EC102B51EC190BFFF75C
:100F300059F941EC180BFFF77FFA00B22080BDF998
:100F40000200FFF768FA41EC1C0B2848006800EB30
:100F50004000274901EB001090ED081BB0EE410A5C
:100F6000F0EE610A53EC102B51EC1C0BFFF7E1F98A
:100F700041EC1A0BBDF90000FFF74DFA41EC1C0BD8
:100F80001A48006800EB4000194901EB001090ED91
:100F9000061BB0EE410AF0EE610A53EC102B51EC47
:100FA0001C0BFFF7C6F941EC1B0B53EC1A2BFFF798
:100FB00019F941EC180B0D48006800EB40000C4992
:100FC00001EB001090ED0A1BB0EE410AF0EE610A51
:100FD00053EC102B51EC180BFFF704F941EC190BF3
:100FE000FFF72AFA00B2608000204FE700000020DF
:100FF000080000201CB501211820FFF7E1FB0120AB
:1010000000908DF805008DF8040000208DF8060092
:101010008DF8070069461848FFF716FB042000907A
:1010200069461548FFF710FB4FF4005000906946E1
:101030001248FFF709FB0820009001208DF80500F9
:1010400000208DF8040001208DF8070069460A4849
:10105000FFF7FAFA1020009000208DF8040001201C
:101060008DF8070069460448FFF7EEFA4FF4005187
:101070000248FFF75DFB1CBD00100240000C02405F
:1010800010B50446204600F065F800F011F810BDD8
:1010900070B504460D469020FFF7F2FF2080012036
:1010A00000F063F9D020FFF7EBFF288070BD00004F
:1010B00070B5002504211148FFF73AFB01210F48C4
:1010C000FFF738FB002414E001210C48FFF730FB48
:1010D00008210A48FFF723FB0646C4F10B0006FA75
:1010E00000F0284385B201210448FFF723FB601C70
:1010F000C4B20C2CE8DB284670BD00000010024092
:1011000010B50446B4F90220B4F9001001A000F0B3
:1011100053F810BD546F756368446F776E2C783A3E
:1011200025642C793A25640D0A00000010B50446A8
:10113000B4F90220B4F9001001A000F03DF810BD90
:10114000546F75636855702C783A25642C793A256C
:10115000640D0A0070B50546002404211548FFF708
:10116000E7FA01211348FFF7E3FA00BF1FE0C4F1DB
:10117000070045FA00F000F0010020B104210D48FD
:10118000FFF7D8FA03E004210A48FFF7D1FA052057
:1011900000F0EBF801210748FFF7CCFA052000F03A
:1011A000E4F801210348FFF7C3FA601CC4B2082C1D
:1011B000DDDB70BD001002400FB4054B10B503A974
:1011C000044A029800F018F810BC5DF814FB000007
:1011D00089130008A801002002E008C8121F08C1F6
:1011E000002AFAD170477047002001E001C1121FA8
:1011F000002AFBD1704700002DE9FF4F89B09B46C4
:101200000446002506E025280BD05A460B99904746
:10121000641C6D1C20780028F5D10DB02846BDE86F
:10122000F08F0027B8460122474900E0074314F831
:10123000013F203B02FA03F00842F7D120782E2824
:1012400019D114F8010F47F004072A280ED06FF0C7
:101250002F022078A0F1300109290CD808EB880171
:1012600002EB410100EB0108641CF2E70A98641CE0
:1012700050F8048B0A9020780028CED0642808D03B
:10128000692806D075281ED05A460B9990476D1CC8
:1012900058E00A994FF00A0901C90A91002802DAB8
:1012A00040422D2102E0390504D52B218DF8201074
:1012B000012103E0F90704D02021F7E78A4608AEB0
:1012C0000DE00021FAE70A994FF00A0901C90A91D5
:1012D000F7E74946FFF7CFF8303106F8011D00283F
:1012E000F7D1ADEB060000F12009780701D44FF0EB
:1012F0000108C84502DDA8EB090000E00020804697
:10130000002706E008A85A46C05D0B9990476D1C5F
:101310007F1C5745F6DB04E030205A460B99904776
:101320006D1CB8F10001A8F10108F5DC05E016F824
:10133000010B5A460B9990476D1CB9F10001A9F1B8
:101340000109F4DC641C65E70928010007E048F2A4
:10135000084100BF0A1EA1F1010399B2FAD1021E91
:10136000A0F1010398B2F2D1704706E01F2100BF3F
:101370000A1EA1F1010399B2FAD1021EA0F10103E4
:1013800098B2F3D17047000070B504460D46E1B243
:101390000548FFF76CFC00BF80210348FFF7C6FB40
:1013A0000028F9D0204670BD004400404FF4E130E1
:1013B000FFF748FBFFF71EFE04A0FFF7FDFE04E069
:1013C000FFF75CFC3220FFF7C1FFF9E758505432B9
:1013D00030343620544553540D0A0000FC130008E5
:1013E00000000020AC010000E40500089C15000886
:1013F000AC01002004040000E811000852000100C4
:10140000FF00E31A9FC9FE797ABFF33D23111AC189
:10141000B2BFBE2EC37FBA857140809C3061342B31
:10142000B33F8448861C5BCF603F07793D98142FFB
:101430001AC090DB2F9FAC18B63F6FF607CA6DFB42
:101440005E3FA0DFF76F5EAC29C0F9A1D288997D1D
:101450006EBF74081C0934D8B0BF42E90B21E7D62F
:101460006F4071218FE046CA663FF511F8C3CF7F08
:10147000AF3F842C0B26FE3027C0BC1FB75F3E5900
:10148000B53F64247B849A21753F8BFA2477D84C2E
:101490002FC067800BB265F9B63F2C616D8C9DF053
:1014A00032BF1E51A1BAB99C34C03F1C2444F982FA
:1014B00056BF7DCA3159DC7FB03FCAE2FE23D30D4F
:1014C00030C05D8940F50F22493FF5BBB0355B79EF
:1014D000B1BFC652245F895C6F4004E3E0D231E7BC
:1014E000B5BFE527D53E1D8F29BFACADD85FF6EB64
:1014F0007440D53F8864C8B1B5BFE7340BB43BA492
:101500004483083F0C5707409C327440C158DFC0E9
:10151000E44661BFF31E679AB0FDB0BFA471A8DFB7
:10152000C54F7040B55208E412475EBF95F25A09A4
:10153000DD25B13F38D906EE409D29C0D9D0CDFE7A
:1015400040B9B5BFFF092E56D4604ABFBD344580AF
:1015500053D67440C503CAA65CE1B5BF7044F7AC6E
:101560006BB44CBFA3772AE05EE07440F623456479
:1015700058C56BBF36CD3B4ED191B03F52B7B3AFDC
:101580003CD818C08652FF012592200501020304B1
:0C15900004440506070809A6000000003E
:040000050800018965
:00000001FF
