:020000040800F2
:10000000380700202902000831040008C70300084F
:100010002D040008E30200080B0D0008000000009A
:100020000000000000000000000000007D09000842
:10003000E702000800000000C10400086D0A000883
:10004000430200084302000843020008430200087C
:10005000430200084302000843020008430200086C
:10006000430200084302000843020008430200085C
:10007000430200084302000843020008430200084C
:10008000430200084302000843020008430200083C
:10009000430200084302000843020008430200082C
:1000A000430200084302000843020008430200081C
:1000B000430200084302000843020008430200080C
:1000C00043020008430200084302000843020008FC
:1000D0004302000843020008D90A0008430200084E
:1000E00043020008430200084302000843020008DC
:1000F00043020008430200084302000843020008CC
:1001000043020008430200084302000843020008BB
:1001100043020008430200084302000843020008AB
:10012000430200084302000843020008430200089B
:10013000430200084302000843020008430200088B
:10014000430200084302000843020008430200087B
:10015000430200084302000843020008430200086B
:10016000430200084302000843020008430200085B
:10017000430200084302000843020008430200084B
:10018000430200084302000800F002F800F03CF8C7
:100190000AA090E8000C82448344AAF10107DA45E2
:1001A00001D100F031F8AFF2090EBAE80F0013F0F8
:1001B000010F18BFFB1A43F001031847C80D0000D8
:1001C000E80D0000103A24BF78C878C1FAD8520769
:1001D00024BF30C830C144BF04680C6070470000C1
:1001E0000023002400250026103A28BF78C1FBD840
:1001F000520728BF30C148BF0B6070471FB500F0E1
:10020000BBFE1FBD10B510BD00F031F81146FFF761
:10021000F5FF00F08BFD00F04FF803B4FFF7F2FF9D
:1002200003BC00F057F80000094880470948004720
:10023000FEE7FEE7FEE7FEE7FEE7FEE7FEE7FEE796
:10024000FEE7FEE704480549054A064B70470000F3
:10025000710A0008890100083801002038070020D1
:1002600038030020380300207047704770477546F8
:1002700000F02CF8AE4605006946534620F0070012
:10028000854618B020B5FFF7DDFFBDE820404FF0F0
:1002900000064FF000074FF000084FF0000B21F070
:1002A0000701AC46ACE8C009ACE8C009ACE8C0093D
:1002B000ACE8C0098D46704710B50446AFF3008026
:1002C0002046BDE81040FFF7A8BF00000048704777
:1002D000D800002001491820ABBEFEE7260002002E
:1002E000704700BFFEE77047F0B50A4600210023C3
:1002F000002400BF3DE0012505FA01F3156805EA79
:1003000003049C4234D105684F000326BE40B54328
:10031000056015794E00B5400668354305601579CE
:10032000012D02D01579022D16D185684F000326C4
:10033000BE40B543856055794E00B540866835436B
:100340008560456801268E40B543456045689679CD
:100350008E40B6B235434560C5684F000326BE40A7
:10036000B543C560D5794E00B540C6683543C56014
:10037000491C1029BFD3F0BDF0B5002300244D0760
:10038000ED0E02FA05F3CE1000F1200555F82650C7
:100390004E07F70E0F26BE40B543CF1000F12006E2
:1003A00046F82750CE1000F1200555F8265045EAB2
:1003B0000304CE1000F1200545F82640F0BD41832E
:1003C00070470183704700BFFEE7000070B5054627
:1003D0000C46012D04D0022D0DD0032D21D115E0A6
:1003E00024B120211048FFF7EAFF03E020210E4846
:1003F000FFF7E7FF16E024B101210B48FFF7DFFF0D
:1004000003E001210848FFF7DCFF0BE024B10221E3
:100410000548FFF7D4FF03E002210348FFF7D1FFAF
:1004200000E000BF00BF70BD0004024000BFFEE757
:100430007047000070B5002100230F22C4781CB360
:10044000174C246804F4E064C4F5E064C4F30721A5
:10045000C1F10404E3B20A4144789C40E1B28478DB
:10046000144021430C07210E0E4C05786155047889
:1004700004F01F050124AC4005786D11AD0005F1B5
:10048000E025C5F8004109E0047804F01F050124C7
:10049000AC40054D0678761145F8264070BD000049
:1004A0000CED00E000E400E080E100E002490143DF
:1004B000024A1160704700000000FA050CED00E0F0
:1004C0007047000070B500250026784800887849FC
:1004D0000880002405E07748005D77490855601CD6
:1004E000C4B2724800888442F5DB00240FE07248F1
:1004F000005D0D2803D07048005D0A2805D100205A
:100500006D4908556A48048005E0601CC4B268481B
:1005100000888442EBDB00BF00240EE06648005DEB
:10052000612808DB6448005D7A2804DC6248005DCD
:10053000203861490855601CC4B25D480088844277
:10054000ECDB5D4800784C2856D15B484078452864
:1005500052D15948807844284ED155480088042803
:100560000CDB5548C078312808DB5348C078332865
:1005700004DC5148C0783038C5B203E04FA000F029
:10058000FDFA70BD4C4800794F2814D14A48407993
:100590004E2810D1012631462846FFF717FF4EA0FE
:1005A00000F0ECFA01214448C01C00F0CFFA4BA047
:1005B00000F0E4FA77E0404800794F2818D13E482F
:1005C0004079462814D13C488079462810D100262D
:1005D00031462846FFF7FAFE3FA000F0CFFA01218E
:1005E0003548C01C00F0B2FA3FA000F0C7FA5AE04C
:1005F00040A000F0C3FA56E02F48007842281CD1F2
:100600002D484078452818D12B488078452814D1AA
:100610002948C078502810D14FF480713C48FFF72A
:10062000CEFE642000F073FB4FF480713848FFF772
:10063000C8FE38A000F0A2FA35E01F48007848282C
:100640002AD11D484078452826D11B4880784C285F
:1006500022D11948C07850281ED132A000F08EFA5D
:1006600039A000F08BFA3EA000F088FA42A000F01A
:1006700085FA47A000F082FA4BA000F07FFA50A064
:1006800000F07CFA54A000F079FA5AA000F076FA53
:100690005FA000F073FA06E005480088002802DD3C
:1006A00064A000F06BFA00BF6BE7000016000020AA
:1006B0001A00002028000020A8000020B4EDCEF38E
:1006C0003A204C4544B1E0BAC5B1D8D0EBCAC731E5
:1006D0002D330D0A000000004C45440020D2D1B556
:1006E000E3C1C10D0A00000020D2D1CFA8C3F00D94
:1006F0000A000000B4EDCEF33A20D7B4CCACB1D8A8
:10070000D0EBCAC74F4EBBF24F46460D0A00000061
:1007100000000240B7E4C3F9C6F7CFECD2BBC9F979
:100720000D0A00000D0A3D3D3D3D3D3D3D3D3D3D39
:1007300020B0EFD6FAD0C5CFA2203D3D3D3D3D3D96
:100740003D3D3D3D0D0A00004C454431204F4E20BB
:1007500020202D20B5E3C1C14C4544310D0A0000D5
:100760004C454431204F464620202D20CFA8C3F0D1
:100770004C4544310D0A00004C454432204F4E2078
:1007800020202D20B5E3C1C14C4544320D0A0000A4
:100790004C454432204F464620202D20CFA8C3F0A0
:1007A0004C4544320D0A00004C454433204F4E2046
:1007B00020202D20B5E3C1C14C4544330D0A000073
:1007C0004C454433204F464620202D20CFA8C3F06F
:1007D0004C4544330D0A000042454550202020205E
:1007E00020202D20B7E4C3F9C6F7CFECD2BBC9F95E
:1007F0000D0A000048454C502020202020202D20AC
:10080000CFD4CABEB4CBB0EFD6FA0D0A00000000B8
:100810003D3D3D3D3D3D3D3D3D3D3D3D3D3D3D3D08
:100820003D3D3D3D3D3D3D3D3D3D3D3D3D3D3D0D28
:100830000A000000CEB4D6AAD6B8C1EE2120CAE480
:10084000C8EB48454C50B2E9BFB4B0EFD6FA0D0A38
:100850000000000029B1064A12680243044B1A60E6
:1008600004E0034A12688243014B1A60704700009B
:100870003038024029B1064A12680243044B1A601C
:1008800004E0034A12688243014B1A60704700007B
:1008900040380240F0B50021002200240225002645
:1008A0000223324F3F6807F00C0121B1042905D023
:1008B000082937D105E02E4F076036E02D4F07603D
:1008C00033E02A4F3F1F3F68C7F38056274F3F1F33
:1008D0003F6807F03F036EB1264FB7FBF3F7DFF831
:1008E0008CC0ACF1040CDCF800C0CCF3881C07FB16
:1008F0000CF40CE01E4FB7FBF3F7DFF870C0ACF15F
:10090000040CDCF800C0CCF3881C07FB0CF4174F78
:100910003F1F3F68C7F301477F1C7D00B4FBF5F71D
:10092000076002E0124F076000BF00BF0F4F3F6833
:1009300007F0F0010909104F7A5C0768D74047605B
:100940000A4F3F6807F4E051890A0B4F7A5C476809
:10095000D7408760054F3F6807F46041490B064F59
:100960007A5C4768D740C760F0BD00000838024095
:100970000024F40000127A000000002070470000FC
:100980000CB50020019000903448006840F480309D
:100990003249086000BF3148006800F40030009020
:1009A0000198401C0190009818B90198B0F5A04F2B
:1009B000F1D12A48006800F4003010B10120009005
:1009C00001E0002000900098012846D123484030E3
:1009D000006840F08050214940310860204800689C
:1009E00040F440401E4908601C48083000681B491C
:1009F000083108600846006840F400400860084676
:100A0000006840F4A05008601648091F0860081FDD
:100A1000006840F08070091F086000BF0F48006840
:100A200000F000700028F9D040F205700E4908600F
:100A30000A480830006820F00300084908310860BF
:100A40000846006840F00200086000BF0348083014
:100A5000006800F00C000828F8D10CBD00380240F6
:100A60000070004008544007003C024070470000FE
:100A700010B51548006840F4700013490860134829
:100A8000006840F001001149086000200F4908315A
:100A900008600E4800680E4908400C4908600D487F
:100AA000091D0860081F006820F48020091F0860E5
:100AB000002006490C310860FFF762FF4FF000602C
:100AC00001498039086010BD88ED00E0003802401F
:100AD000FFFFF6FE1030002410B500242021154839
:100AE00000F06EF820B3134800F006F9C4B21248C3
:100AF000007870B10A2C1BD10120104908701048F1
:100B000000881049088000200D4908800A490870B3
:100B10000EE00D2C03D101200749087008E00A48B7
:100B200007490988445406480088401C0449088045
:100B300010BD0000004400401200002013000020FF
:100B400014000020160000202800002070B5054683
:100B50000E4600240CE000BF4021074800F030F8AA
:100B60000028F9D0295D044800F0CBF8601C84B25D
:100B7000B442F0DB70BD00000044004010B50446F4
:100B80000BE000BF4021074800F01AF80028F9D018
:100B900014F8011B034800F0B4F820780028F0D1C5
:100BA00010BD00000044004021B1828942F400528F
:100BB000828104E082894DF6FF731A40828170477A
:100BC00002460020B1F5007F00D100BF13880B4022
:100BD0000BB1012000E000207047F0B5034600246F
:100BE00000260025002040F66A17B94200D100BF58
:100BF0001846C1F3421401F01F06012707FA06F553
:100C0000012C01D10C3004E0022C01D1103000E0A5
:100C100014301AB107682F43076002E00768AF433A
:100C20000760F0BD2DE9FF4705460E460024A146AA
:100C300000BFA046B08900B100BF2C8A24F4405404
:100C4000F08804432C82AC8941F20C608443B08864
:100C500031890843718908430443AC81AC8A24F488
:100C60004074B0890443AC826846FFF713FE204805
:100C7000854202D01F48854202D1DDF80C9001E088
:100C8000DDF80890A88900F4004040B109EBC900E4
:100C900000EB091031684900B0FBF1F707E009EB00
:100CA000C90000EB091031688900B0FBF1F764203E
:100CB000B7FBF0F004012009642101FB1078A8893A
:100CC00000F4004040B1322000EBC800B0FBF1F06E
:100CD00000F00700044308E0322000EB0810642114
:100CE000B0FBF1F000F00F0004432C81BDE8FF875A
:100CF000001001400014014001468888C0F308003C
:100D00007047C1F308028280704700BFFEE707E02A
:100D100048F2084100BF0A1EA1F1010399B2FAD1BD
:100D2000021EA0F1010398B2F2D170470121022006
:100D3000FFF790FD23204A49086001200871002038
:100D40008871012048710020C87123214548FFF7B0
:100D500038FB43494348FFF7C7FA01210846FFF72C
:100D600079FD4FF480703E49086001200871002031
:100D70008871012048710020C8714FF480713A4891
:100D8000FFF71FFB36493848FFF7AEFA0121084646
:100D9000FFF760FD01214804FFF76CFD0C2030498E
:100DA0000860022008714871002088710120C87114
:100DB0002D48FFF799FA072202212B48FFF7DCFAAA
:100DC000072203212848FFF7D7FA4FF4E1302749DB
:100DD000086000208880C880088188810C204881B4
:100DE0002348FFF71FFF01212148FFF7DDFE012205
:100DF00040F225511E48FFF7F0FE4FF4E060FFF788
:100E000055FB26201B49087001204870032088707C
:100E10000120C8700846FFF70DFB17A0FFF7AEFED4
:100E20001FA0FFF7ABFE27A0FFF7A8FE2CA0FFF73F
:100E3000A5FE32A0FFF7A2FE38A0FFF79FFE3FA05D
:100E4000FFF79CFE47A0FFF799FE07E049480078AE
:100E500020B1002047490870FFF734FBF6E7000097
:100E60001C0000200004024000000240C8000020D6
:100E700000440040240000200D0A3D3D3D3D3D3D25
:100E80003D3D3D3D204C4544BFD8D6C6CFB5CDB342
:100E9000203D3D3D3D3D3D3D3D3D3D0D0A000000B9
:100EA000D6B8C1EEB8F1CABD3A204C454478204FBF
:100EB0004E2F4F464620202028783D312C322C33AF
:100EC000290D0A00C0FDC8E73A204C454431204FA7
:100ED0004E2020B5E3C1C14C4544310D0A0000004D
:100EE0002020202020204C454432204F464620CF51
:100EF000A8C3F04C4544320D0A00000020202020F9
:100F00002020424545502020202020B7E4C3F9C6C8
:100F1000F7CFECD2BBC9F90D0A0000002020202039
:100F2000202048454C502020202020CFD4CABEB0DD
:100F3000EFD6FAD0C5CFA20D0A0000003D3D3D3DE1
:100F40003D3D3D3D3D3D3D3D3D3D3D3D3D3D3D3DD1
:100F50003D3D3D3D3D3D3D3D3D3D3D3D3D3D3D0DF1
:100F60000A0000000D0AC7EBCAE4C8EBD6B8C1EE10
:100F70003A0D0A00130000204FF04070E1EE100A15
:100F800070470000A40F00080000002028000000A7
:100F9000C4010008CC0F0008280000201007000042
:100FA000E001000800000000010203040102030444
:100FB0000607080900000000000000000000000013
:0C0FC00000000000000000000000000025
:040000050800018965
:00000001FF
