:020000040800F2
:100000008006002029020008FF030008F70300080B
:10001000FB030008E3020008A1050008000000003F
:10002000000000000000000000000000450400087F
:100030006503000800000000010400083505000801
:10004000430200084302000843020008430200087C
:10005000430200084302000843020008430200086C
:10006000430200084302000843020008430200085C
:10007000430200084302000843020008430200084C
:10008000430200084302000843020008430200083C
:10009000430200084302000843020008430200082C
:1000A000430200084302000843020008430200081C
:1000B000430200084302000843020008430200080C
:1000C00043020008430200084302000843020008FC
:1000D00043020008430200084302000843020008EC
:1000E00043020008430200084302000843020008DC
:1000F00043020008430200084302000843020008CC
:1001000043020008430200084302000843020008BB
:1001100043020008430200084302000843020008AB
:10012000430200084302000843020008430200089B
:10013000430200084302000843020008430200088B
:10014000430200084302000843020008430200087B
:10015000430200084302000843020008430200086B
:10016000430200084302000843020008430200085B
:10017000430200084302000843020008430200084B
:10018000430200084302000800F002F800F03CF8C7
:100190000AA090E8000C82448344AAF10107DA45E2
:1001A00001D100F031F8AFF2090EBAE80F0013F0F8
:1001B000010F18BFFB1A43F0010318479C0400000D
:1001C000BC040000103A24BF78C878C1FAD852079E
:1001D00024BF30C830C144BF04680C6070470000C1
:1001E0000023002400250026103A28BF78C1FBD840
:1001F000520728BF30C148BF0B6070471FB500F0E1
:1002000025FA1FBD10B510BD00F031F81146FFF7FB
:10021000F5FF00F0D7F900F04FF803B4FFF7F2FF55
:1002200003BC00F057F80000094880470948004720
:10023000FEE7FEE7FEE7FEE7FEE7FEE7FEE7FEE796
:10024000FEE7FEE704480549054A064B70470000F3
:100250003905000889010008800000208006002080
:10026000800200208002002070477047704775466A
:1002700000F02CF8AE4605006946534620F0070012
:10028000854618B020B5FFF7DDFFBDE820404FF0F0
:1002900000064FF000074FF000084FF0000B21F070
:1002A0000701AC46ACE8C009ACE8C009ACE8C0093D
:1002B000ACE8C0098D46704710B50446AFF3008026
:1002C0002046BDE81040FFF7A8BF00000048704777
:1002D0001C00002001491820ABBEFEE726000200EA
:1002E000704700BFFEE7000039B1084A12680123D9
:1002F00083401A43054B1A6006E0044A1268012342
:1003000083409A43014B1A6070470000007400401C
:1003100030B5002200230A4C226840F6FE74844067
:10032000A243D1E900452C438D682C43CD6844EAB3
:10033000050303FA00F42243014C226030BD0000A3
:100340000074004008B500220092054A009200F1B6
:100350000802009B1A440092009A116008BD000038
:10036000007400407047F0B50A46002100230024C5
:1003700000BF3DE0012505FA01F3156805EA030415
:100380009C4234D105684F000326BE40B54305604A
:1003900015794E00B5400668354305601579012D85
:1003A00002D01579022D16D185684F000326BE4074
:1003B000B543856055794E00B54086683543856004
:1003C000456801268E40B5434560456896798E4064
:1003D000B6B235434560C5684F000326BE40B543FD
:1003E000C560D5794E00B540C6683543C560491C27
:1003F0001029BFD3F0BD00BFFEE700BFFEE7704786
:100400007047000029B1064A12680243044B1A6083
:1004100004E0034A12688243014B1A6070470000EF
:100420003038024029B1064A12680243044B1A6070
:1004300004E0034A12688243014B1A6070470000CF
:1004400040380240704700000CB500200190009039
:100450003448006840F480303249086000BF3148B9
:10046000006800F4003000900198401C0190009852
:1004700018B90198B0F5A04FF1D12A48006800F4EE
:10048000003010B10120009001E0002000900098A1
:10049000012846D123484030006840F0805021496F
:1004A000403108602048006840F440401E49086020
:1004B0001C48083000681B4908310860084600687D
:1004C00040F4004008600846006840F4A05008600E
:1004D0001648091F0860081F006840F08070091F57
:1004E000086000BF0F48006800F000700028F9D0D5
:1004F00040F205700E4908600A480830006820F094
:1005000003000849083108600846006840F002000E
:10051000086000BF03480830006800F00C0008289D
:10052000F8D10CBD0038024000700040085440076C
:10053000003C02407047000010B51548006840F4C8
:100540007000134908601348006840F00100114929
:10055000086000200F49083108600E4800680E4905
:1005600008400C4908600D48091D0860081F006814
:1005700020F48020091F0860002006490C31086023
:10058000FFF762FF4FF0006001498039086010BD3D
:1005900088ED00E000380240FFFFF6FE1030002436
:1005A00000BFFEE707E048F2084100BF0A1EA1F1C4
:1005B000010399B2FAD1021EA0F1010398B2F2D15F
:1005C0007047000001210846FFF71CFF0121480782
:1005D000FFF728FF10201949086003200871184808
:1005E000FFF7C1FE002017490860486088600220BC
:1005F000C8600020FFF78CFE01210020FFF774FE89
:1006000000210846FFF79EFE16E00F4801880020F3
:10061000FFF798FE0C480088F8300B490880084620
:10062000008840F6FF71884202DD002006490880FC
:100630004FF47A70FFF7B6FFE7E7000004000020F0
:10064000000002400C000020000000204FF040702D
:10065000E1EE100A70470000780600080000002054
:100660000C000000C4010008840600080C000020F3
:1006700074060000E0010008000000000000000017
:040680000000000076
:040000050800018965
:00000001FF
