:020000040800F2
:10000000600600209D010008491500083B0B000810
:10001000ED130008ED0200085B1F0008000000005F
:100020000000000000000000000000000D1A0008A1
:100030002D0900080000000061180008251B0008B9
:10004000B7010008B7010008B7010008B7010008B0
:10005000B7010008B7010008B7010008B7010008A0
:10006000B7010008B7010008B7010008B701000890
:10007000B7010008B7010008B7010008B701000880
:10008000B7010008B7010008B7010008B701000870
:10009000B7010008B7010008B7010008B701000860
:1000A000B7010008B7010008B7010008B701000850
:1000B000B7010008B7010008B7010008B701000840
:1000C000B7010008B7010008B7010008B701000830
:1000D000B7010008551C0008B7010008B701000867
:1000E000B7010008B7010008B7010008B701000810
:1000F000B7010008B7010008B7010008B701000800
:10010000B7010008B7010008B7010008B7010008EF
:10011000B7010008B7010008B7010008B7010008DF
:10012000B7010008B7010008B7010008B7010008CF
:10013000B7010008B7010008B7010008B7010008BF
:10014000B7010008B7010008B7010008B7010008AF
:10015000B7010008B7010008B7010008B70100089F
:10016000B7010008B7010008B7010008B70100088F
:10017000B7010008B7010008B7010008B70100087F
:10018000B7010008B7010008DFF80CD000F05CF8F8
:1001900000480047DD24000860060020064880472C
:1001A00006480047FEE7FEE7FEE7FEE7FEE7FEE75C
:1001B000FEE7FEE7FEE7FEE7611B00088901000895
:1001C000D2B201E000F8012B491EFBD27047002299
:1001D000F6E710B513460A4604461946FFF7F0FF46
:1001E000204610BD2DE9F05F0546002092469B4653
:1001F00088460646814640241BE02846414647463D
:10020000224600F042F853465A46C01A914110D394
:1002100011461846224600F029F82D1A67EB01080E
:100220004F4622460120002100F020F817EB00097C
:100230004E41201EA4F10104DFDC484631462A4627
:100240004346BDE8F09F0000064C074D06E0E0681D
:1002500040F0010394E8070098471034AC42F6D30D
:10026000FFF796FF8C2E0008AC2E0008202A04DB36
:10027000203A00FA02F1002070479140C2F12003B9
:1002800020FA03F3194390407047202A04DB203AF8
:1002900021FA02F00021704721FA02F3D040C2F1A6
:1002A0002002914008431946704700001CB5012107
:1002B000084601F0D7FA4FF48070009001208DF8C5
:1002C000040000208DF8060001208DF805000020B4
:1002D0008DF807006946044800F0B7FB4FF48071C1
:1002E000014800F028FC1CBD0000024000BFFEE7F2
:1002F00000B589B00121084601F0B4FA0121480691
:1003000001F0D0FA4FF4C050079002208DF8200081
:1003100003208DF8210000208DF8220001208DF8A7
:10032000230007A9234800F090FB09220B21214854
:1003300000F0D3FB09220C211E4800F0CEFB1E4822
:1003400000F05CF800208DF816008DF817008DF88D
:1003500018008DF819008DF81A008DF81B008DF823
:1003600012008DF8130009208DF8140004208DF878
:100370001500ADF8100004A90F4800F0DFF80020C8
:100380008DF80A008DF80B0001208DF80C0000207C
:10039000ADF80000ADF80200ADF80400ADF80600BD
:1003A000ADF8080001208DF80D00684600F042F815
:1003B00009B000BD000002400064004070B586B086
:1003C00005460E4614460195002002908DF80C005B
:1003D0008DF80D008DF80E4000BF05E0325C0DF188
:1003E0000F010A54411CC8B2A042F7DB01A9024820
:1003F00000F02EF906B070BD0064004010B5044650
:100400000B48844209D10121480601F05BFA002122
:100410004FF0007001F056FA08E00121880601F063
:1004200051FA00214FF0806001F04CFA10BD00003D
:100430000064004010B50021837A012202FA03F122
:100440003D4A126842F001023B4B1A603A4A1C32A4
:1004500012688A43384B1C331A60027BCAB9364A89
:100460000C3212688A43344B0C331A604288C388BA
:1004700042EA0343304A4032847A42F834300288F8
:10048000838842EA03432C4A4032847A02EBC40256
:100490005360027B012A19D1274A0C3212680A43A1
:1004A000254B0C331A604288038842EA0343224AF0
:1004B0004032847A42F83430C288838842EA034367
:1004C0001D4A4032847A02EBC4025360C27A3AB9C0
:1004D000194A121D12688A43174B1B1D1A6006E049
:1004E000154A121D12680A43134B1B1D1A6002891C
:1004F00032B9114A143212688A430F4B14331A600E
:100500000289012A06D10C4A143212680A430A4BA6
:1005100014331A60427B012A06D1074A1C32126842
:100520000A43054B1C331A60034A126822F0010289
:10053000014B1A6010BD00000066004030B5024655
:1005400000200023146824F002041460146844F0AE
:100550000104146000E05B1C546804F001041CB941
:100560004FF6FF74A342F6D1546804F001040CB9AD
:1005700000206CE08C79012C04D1146844F08004D4
:10058000146003E0146824F080041460CC79012C1A
:1005900004D1146844F04004146003E0146824F0AB
:1005A000400414600C7A012C04D1146844F0200437
:1005B000146003E0146824F0200414604C7A012CC9
:1005C00004D1146844F01004146003E0146824F0AB
:1005D000100414608C7A012C04D1146844F00804CF
:1005E000146003E0146824F008041460CC7A012C31
:1005F00004D1146844F00404146003E0146824F087
:10060000040414608C78A407CD7844EA05640D795D
:1006100044EA05444D7944EA05540D886D1E2C4387
:10062000D461146824F001041460002300E05B1C12
:10063000546804F001041CB14FF6FF74A342F6D1D4
:10064000546804F001040CB1002000E0012030BD2A
:1006500010B502460020936803F08063B3F1806F09
:1006600000D110E0936803F00063B3F1006F01D193
:10067000012008E0936803F08053B3F1805F01D15B
:10068000022000E00420042874D002F5C07303EBBC
:1006900000131B6803F0010402F5C07303EB0013A1
:1006A0001C600B7A7BB94B7A0C8843EA445302F501
:1006B000C07404EB00142468234302F5C07404EBF7
:1006C0000014236010E00B7A4C6843EAC4034C7AB0
:1006D000234302F5C07404EB00142468234302F59D
:1006E000C07404EB001423608B7A03F00F038B7249
:1006F00002F5C07303EB00135B6823F00F0402F5EF
:10070000C07303EB00135C6002F5C07303EB0013CE
:100710005B688C7A234302F5C07404EB00146360B9
:100720008B7B1C064B7B44EA03440B7B44EA03238C
:10073000CC7A234302F5C07404EB0014A3608B7CD5
:100740001C064B7C44EA03440B7C44EA0323CC7B29
:10075000234302F5C07404EB0014E36002F5C07398
:1007600003EB00131B6843F0010402F5C07303EBB5
:1007700000131C6010BD000010B50121102001F015
:1007800071F800F01BF84021014800F0D4F910BDC9
:10079000001002401CB54020009000208DF804009D
:1007A0008DF806008DF8070001208DF805006946D8
:1007B000014800F04AF91CBD001002401CB5402061
:1007C000009001208DF8040000208DF806008DF8BF
:1007D000070001208DF805006946024800F035F950
:1007E0001CBD00000010024010B56421002000F084
:1007F00081F8002802DA4FF0FF3010BD642101209B
:1008000000F078F8002802DA4FF0FF30F5E72820F2
:1008100001F02CFE4021044800F082F9012800D1AB
:10082000EBE70020E9E700000010024070B500246B
:10083000002500BF07E06006040EFFF7D5FF204348
:10084000C4B2681CC5B2082DF5DB204670BD00009F
:1008500010B5044614B94FF0FF3010BDFFF7AEFFDE
:100860004021234800F067F94021214800F061F958
:10087000122001F0DFFD40211D4800F05CF91E2030
:1008800001F0F4FDFFF786FFC821002000F032F8E8
:10089000002802DA4FF0FF30DFE76421012000F08A
:1008A00029F8002802DA4FF0FF30D6E7502001F097
:1008B000DDFDFFF7BBFF2070FFF7B8FF6070FFF7AB
:1008C000B5FFA070FFF7B2FFE070FFF7AFFF207138
:1008D000207861780844A1780844E17808442179B7
:1008E000884202D04FF0FF30B7E70020B5E70000A4
:1008F0000010024070B506460C46002504E0681C56
:10090000C5B2012001F0B2FD4021074800F008F90E
:10091000B04201D0A542F2D3A54202D34FF0FF303E
:1009200070BD0020FCE7000000100240704700008E
:1009300051B18200A2F1C042126842F0010382006C
:10094000A2F1C042136009E08200A2F1C042126825
:10095000034B1A408300A3F1C0431A6070470000A4
:10096000FEFF0F00D0E901121143C2681143026972
:1009700011434269114382691143C2691143026AFA
:100980001143426A1143826A1143C26A1143026BE6
:10099000114302689200A2F1C042116081680829E7
:1009A0000BD101688900A1F1C041096841F0400202
:1009B00001688900A1F1C0410A60416B0968426B7E
:1009C000526841EA0211426B926841EA0221426B8D
:1009D000928941EA0241426B128A41EA0251426B1A
:1009E000127D41EA0261426B926911430268521C16
:1009F0009200A2F1C0421160C16AB1F5804F1BD1D3
:100A0000816B0968826B526841EA0211826B9268BD
:100A100041EA0221826B128A41EA0251826B127D05
:100A200041EA0261826B9269114302689200A2F16D
:100A3000C042C2F8041107E06FF0704201688900FB
:100A4000A1F1C041C1F804217047F0B50A46002168
:100A50000023002400BF3DE0012505FA01F31568DD
:100A600005EA03049C4234D105684F000326BE40CA
:100A7000B543056015794E00B540066835430560FD
:100A80001579012D02D01579022D16D185684F00F8
:100A90000326BE40B543856055794E00B540866853
:100AA00035438560456801268E40B54345604568FD
:100AB00096798E40B6B235434560C5684F0003262F
:100AC000BE40B543C560D5794E00B540C6683543D4
:100AD000C560491C1029BFD3F0BDF0B50023002428
:100AE0004D07ED0E02FA05F3CE1000F1200555F882
:100AF00026504E07F70E0F26BE40B543CF1000F12B
:100B0000200646F82750CE1000F1200555F8265053
:100B100045EA0304CE1000F1200545F82640F0BD5B
:100B20000246002013690B400BB1012000E00020B9
:100B30007047418370470183704700BFFEE70000A4
:100B400010B504462CB14FF480510548FFF7F1FF72
:100B500004E04FF480510248FFF7EDFF10BD0000A4
:100B6000000C024000B597B00121084600F08AFE53
:100B7000062001900020029006200390002004909F
:100B8000059006900790089009900A9010200B900D
:100B900000200C900D900E900F9010904FF480500C
:100BA0001190002012901390149001A815901690A7
:100BB00008A8FFF7D7FE01210020FFF7B9FE17B004
:100BC00000BD000010B500222C23DC06238000BFEE
:100BD00002E0034B1980521C8242FAD310BD000080
:100BE000000002601CB50121182000F03BFE4CF60D
:100BF000B370009002208DF804008DF805000020ED
:100C00008DF806008DF8070069464348FFF71DFF81
:100C10004FF68070009069464048FFF716FF0C229F
:100C200000213D48FFF759FF0C2201213A48FFF708
:100C300054FF0C2204213848FFF74FFF0C220521F6
:100C40003548FFF74AFF0C2207213348FFF745FFDD
:100C50000C2208213048FFF740FF0C2209212E48C2
:100C6000FFF73BFF0C220A212B48FFF736FF0C222F
:100C70000B212948FFF731FF0C220E212648FFF7F0
:100C80002CFF0C220F212448FFF727FF0C220721FD
:100C90002248FFF722FF0C2208212048FFF71DFF02
:100CA0000C2209211D48FFF718FF0C220A211B48BE
:100CB000FFF713FF0C220B211848FFF70EFF0C2241
:100CC00011461648FFF709FF0C220D211348FFF7C4
:100CD00004FF0C220E211148FFF7FFFE0C220F210A
:100CE0000E48FFF7FAFE4FF48050009001208DF877
:100CF000040000208DF805008DF806008DF807002F
:100D000069460548FFF7A1FE0220009069460348A6
:100D1000FFF79BFE1CBD0000000C024000100240CB
:100D200010B50446072C00DD10BD1648047020469F
:100D300004EBD0714910A4EB410139B9F0201249FC
:100D400008804FF4A0701149088006E04FF4A070AD
:100D50000D490880F0200D490880362001070880E1
:100D6000082040EA44100A490880084803880648D9
:100D700002880021084600F00DF82C20C1060880EA
:100D800000BFD1E70C00002012000020140000205A
:100D90000000026030B52A244FF0C0452C800412B8
:100DA0000F4D2C80C4B22C808418641EC4F30F2411
:100DB0002C808418641EE4B22C802B2465072C80C0
:100DC0000C12074D2C80CCB22C80CC18641EC4F3BE
:100DD0000F242C80CC18641EE4B22C8030BD00009F
:100DE0000000026010B501204FF0C041088078205B
:100DF00001F020FB28204FF0C0410880C02008806F
:100E000023204D490880C1204FF0C04108801020A8
:100E100049490880C5204FF0C04108802B20464931
:100E200008800880C7204FF0C0410880C020424998
:100E300008803A204FF0C041088055203E49088084
:100E4000B1204FF0C041088000203B4908801B20A2
:100E50000880B620010708800820374908808220D2
:100E6000088027200880F2204FF0C0410880002031
:100E70003149088026200107088001202E4908807A
:100E8000E0204FF0C04108800F202B49088031201E
:100E900008802B2008800C2008800E200880082065
:100EA00008804E200880F120088037200880072025
:100EB000088010200880032008800E200880092068
:100EC000088000200880E1204FF0C0410880002009
:100ED000194908800E20088014200880032008800B
:100EE000112008800720088031200880C120088058
:100EF00048200880082008800F2008800C200880E7
:100F000031200880362008800F20088011204FF003
:100F1000C0410880642001F08DFA29204FF0C041C3
:100F20000880642001F086FA2C20C1060880052084
:100F300001F080FA10BD00000000026010B502212F
:100F40000648FFF7F6FD052001F074FA0221034878
:100F5000FFF7F1FD052001F06DFA10BD0010024011
:100F60001CB50121032000F07DFC20200090012011
:100F70008DF8040000208DF8060001208DF8050092
:100F800000208DF8070069460948FFF75EFD202123
:100F90000748FFF7D0FD0120009000208DF80400E5
:100FA00001208DF8070069460248FFF74EFD1CBD81
:100FB000000402400000024010B501210C48FFF778
:100FC000AFFD98B9142001F035FA01210848FFF768
:100FD000A7FD58B900BF01210548FFF7A1FD002872
:100FE000F9D0142001F026FA012010BD0020FCE702
:100FF000000002402DE9F04106460F4614461D460A
:101000002B46224639463046FFF7C4FE04FB05F066
:1010100002490988FFF7D6FDBDE8F08110000020E5
:101020002DE9F05F8046894617461C46DDF828A06A
:10103000002607FB04F0C11700EB5171C1F3CF0B81
:10104000A3B23A4649464046FFF7A4FE2C20C1060B
:101050000880002516E0002610E01AF8050080211F
:101060003141084020B1094800880949088003E05F
:101070000848008806490880701C86B2082EECDB00
:10108000681C85B25D45E6DBBDE8F09F0E000020E0
:1010900000000260100000202DE9F84F07460C46C2
:1010A00091461D464FF0000A00F034F8B0F8048075
:1010B00000F030F8C68823E0287800F03DF882463A
:1010C0006D1C12480088C01B404502DA0027A01999
:1010D00084B20F480088001BB04200DA002433B20B
:1010E000424621463846CDF800A0FFF799FFB9F1F6
:1010F000000F03D107EB080087B201E0A01984B20A
:1011000028780028D8D1BDE8F88F00001200002010
:10111000140000200148006870470000080000200B
:101120000148008870470000120000200148008834
:10113000704700001400002001460A4800688088BB
:10114000084B1B68DB885843A1F1200300FB03F226
:10115000D01702EB5070034B1B681B6803EBE000D9
:10116000704700000800002010B5FFF73BFDFFF7B7
:10117000F9FCFFF7E3FE0120FFF7E2FCFFF732FE88
:1011800002480078FFF7CCFD10BD00000C000020E5
:1011900001490880704700001000002001490860E4
:1011A00070470000080000200149088070470000D7
:1011B0000E0000202DE9F0418AB006460C46154687
:1011C0000020FFF7E5FF4FF6FF70FFF7EDFFFFF799
:1011D000ADFF0746FFF7A4FF80463B46424600218D
:1011E0000846FFF707FF47F6FF70FFF7DDFFFFF741
:1011F00091FF002755A33A4639460820FFF74CFFD8
:101200004FF6E070FFF7D0FFFFF784FFC08840047F
:10121000070C54A3002239460820FFF73DFF55482C
:10122000C378827854A102A800F0AAFE15B14FF449
:10123000784101E04FF6FF710846FFF7B5FFFFF771
:1012400069FFC0884004070C02AB002239468C209D
:10125000FFF722FF4FF4FC60FFF7A6FFFFF75AFFEE
:10126000C08800EB400087B245A300223946082021
:10127000FFF712FF3F484378027844A102A800F02C
:101280007FFE4FF6FF70FFF78FFFFFF743FFC08829
:1012900000EB400087B202AB002239468C20FFF7FA
:1012A000FBFE7DB14FF47840FFF77EFFFFF732FF82
:1012B000C08800EB800087B237A30022394608209F
:1012C000FFF7EAFE002E2BD04FF4FC60FFF76CFF17
:1012D000FFF720FFC08800EB40004004070C34A358
:1012E000002239460820FFF7D7FE4FF6E070FFF7DF
:1012F0005BFFE078A178CDE900106378227830A117
:1013000002A800F03DFEFFF705FFC088C0EBC0005B
:1013100087B202AB002239460820FFF7BDFE11E07C
:1013200085B94FF2DE70FFF73FFFFFF7F3FEC0888D
:1013300000EB40004004070C27A300223946082098
:10134000FFF7AAFE0AB0BDE8F08100004D756C748D
:10135000692D53656E736F72204D6F6E69746F7275
:101360000000000054656D70657261747572653AB5
:10137000000000004500002025642E256420430065
:1013800048756D69646974793A00000025642E25FA
:1013900064202525524800002121212048696768E2
:1013A0002054656D7020416C6572742021212100EC
:1013B0004361726420446574656374656400000071
:1013C0005549443A253032582025303258202530AE
:1013D0003258202530325800506C616365204E46EB
:1013E0004320636172642E2E2E00000000BFFEE7D2
:1013F00010B588B004460121084600F033FA0121F7
:10140000102000F06FFA4FF4C060069002208DF8B3
:101410001C0000208DF81E0001208DF81F00022006
:101420008DF81D0006A91B48FFF70FFB07220921B5
:101430001848FFF752FB07220A211648FFF74DFB19
:1014400002940020ADF80C00ADF80E00ADF81000CD
:10145000ADF814000C20ADF8120002A90E4800F0FF
:1014600009FD012240F225510B4800F0DEFC01216C
:10147000094800F01EFC25208DF8040001208DF89D
:1014800005008DF806008DF8070001A800F05EF851
:1014900008B010BD000002400010014070B50446C5
:1014A00000F01EF90546012D03D114B10248006871
:1014B0002060284670BD00001C0000201FB50024DD
:1014C0000020009001900290039055208DF80000BC
:1014D0008DF801001DE00E21684600F0A9F90120F9
:1014E00000F068F918B90DA000F03AFD12E0642090
:1014F00000F0A0FF641C0D48006850B10B48006864
:10150000844206D90AA000F02BFD4FF0FF3004B052
:1015100010BDE0E700BF0020F9E700004E46432081
:1015200057616B655550204F4B0D0A001800002085
:101530004E46432057616B6555502054696D654F89
:1015400075740D0A000000007047000070B500219E
:1015500000230F22C4781CB3174C246804F4E06401
:10156000C4F5E064C4F30721C1F10404E3B20A4105
:1015700044789C40E1B28478144021430C07210E4A
:101580000E4C05786155047804F01F050124AC4029
:1015900005786D11AD0005F1E025C5F8004109E0C1
:1015A000047804F01F050124AC40054D067876113F
:1015B00045F8264070BD00000CED00E000E400E0BE
:1015C00080E100E070B505460024002200230021E0
:1015D00031480088092801DA481E70BD002112E058
:1015E0002E48405C60B92D4E481C305C40B9881CC8
:1015F000305CFF2804D1C81C305C00B901E007E072
:1016000000BF481C81B2081D234E3688B042E7DB7C
:1016100000BF081D204E3688B04202DB4FF0FF307D
:10162000DBE71D480088401A80B2072802DA4FF035
:10163000FF30D2E7194EC81C325C5042C3B2081DBD
:10164000305C984202D04FF0FF30C6E71248008865
:10165000401A86B2D01D864202DA4FF0FF30BCE756
:101660000023002407E0481D20440C4E305C184441
:10167000C3B2601CC4B29442F5DB5842C3B2481DE9
:101680001044064E305C984202D04FF0FF30A4E781
:1016900029800020A1E70000300000206C0000201D
:1016A00001460022002300BF05E0501D085C1844DD
:1016B000C3B2501CC2B2C8789042F6DC5842C0B2E5
:1016C0007047000010B54FF4FA710348FEF77FFD34
:1016D00000200249088010BD6C000020300000206E
:1016E0001FB50020019002900390002400908DF817
:1016F00004008DF80500FF208DF8060004208DF809
:1017000007009DF807004042C0B28DF80800D420C1
:101710008DF809004A208DF80A0001208DF80B0091
:1017200000208DF80C0001A8FFF7BAFF8DF80D001E
:1017300000208DF80E000B2101A800F079F8C820D8
:1017400000F078FE6846FFF73DFF002801DA641ECE
:1017500026E01649BDF80000C01D085C012801D034
:1017600000241DE01149BDF800000D30085C10494F
:1017700008700E49BDF800000E30085C0C49487036
:101780000A49BDF800000F30085C09498870074914
:10179000BDF800001030085C0549C870012400BF86
:1017A000FFF790FF204604B010BD00006C00002041
:1017B0001C0000207FB50446002001900290039099
:1017C000002500908DF804008DF80500FF208DF8AD
:1017D000060003208DF807009DF807004042C0B2C4
:1017E0008DF80800D4208DF8090014208DF80A0027
:1017F0008DF80B4001A8FFF753FF8DF80C00002077
:101800008DF80D000A2101A800F012F8C82000F0A0
:1018100011FE6846FFF7D6FE002801DA6D1E01E0D2
:10182000002500BFFFF74EFF284604B070BD000042
:1018300070B505460E46002400BF0CE0295D074840
:1018400000F087FB00BF8021044800F0B7FA0028B1
:10185000F9D0601CC4B2B442F0DB70BD001001408E
:101860007047000029B1064A12680243044B1A600F
:1018700004E0034A12688243014B1A60704700007B
:101880003038024029B1064A12680243044B1A60FC
:1018900004E0034A12688243014B1A60704700005B
:1018A0003838024029B1064A12680243044B1A60D4
:1018B00004E0034A12688243014B1A60704700003B
:1018C0004038024029B1064A12680243044B1A60AC
:1018D00004E0034A12688243014B1A60704700001B
:1018E0002038024029B1064A12680243044B1A60AC
:1018F00004E0034A12688243014B1A6070470000FB
:101900004438024029B1064A12680243044B1A6067
:1019100004E0034A12688243014B1A6070470000DA
:1019200024380240F0B500210022002402250026C0
:101930000223324F3F6807F00C0121B1042905D082
:10194000082937D105E02E4F076036E02D4F07609C
:1019500033E02A4F3F1F3F68C7F38056274F3F1F92
:101960003F6807F03F036EB1264FB7FBF3F7DFF890
:101970008CC0ACF1040CDCF800C0CCF3881C07FB75
:101980000CF40CE01E4FB7FBF3F7DFF870C0ACF1BE
:10199000040CDCF800C0CCF3881C07FB0CF4174FD8
:1019A0003F1F3F68C7F301477F1C7D00B4FBF5F77D
:1019B000076002E0124F076000BF00BF0F4F3F6893
:1019C00007F0F0010909104F7A5C0768D7404760BB
:1019D0000A4F3F6807F4E051890A0B4F7A5C476869
:1019E000D7408760054F3F6807F46041490B064FB9
:1019F0007A5C4768D740C760F0BD000008380240F5
:101A00000024F40000127A00320000207047000029
:101A10000CB50020019000903448006840F48030FC
:101A20003249086000BF3148006800F4003000907F
:101A30000198401C0190009818B90198B0F5A04F8A
:101A4000F1D12A48006800F4003010B10120009064
:101A500001E0002000900098012846D12348403042
:101A6000006840F0805021494031086020480068FB
:101A700040F440401E4908601C48083000681B497B
:101A8000083108600846006840F4004008600846D5
:101A9000006840F4A05008601648091F0860081F3D
:101AA000006840F08070091F086000BF0F480068A0
:101AB00000F000700028F9D040F205700E4908606F
:101AC0000A480830006820F003000849083108601F
:101AD0000846006840F00200086000BF0348083074
:101AE000006800F00C000828F8D10CBD0038024056
:101AF0000070004008544007003C0240042808D110
:101B00004FF0E021096941F004014FF0E02211613A
:101B100007E04FF0E021096921F004014FF0E022D5
:101B2000116170477047000010B56FF00400FFF7B7
:101B3000E5FF074800680749B0FBF1F00649086077
:101B4000084600684FF47A7148430449086010BDA4
:101B50004C00002000127A00600000206400002089
:101B600010B51548006840F4700013490860134828
:101B7000006840F001001149086000200F49083159
:101B800008600E4800680E4908400C4908600D487E
:101B9000091D0860081F006820F48020091F0860E4
:101BA000002006490C310860FFF732FF4FF000605B
:101BB00001498039086010BD88ED00E0003802401E
:101BC000FFFFF6FE1030002410B586B00446012158
:101BD0000846FFF747FE01214804FFF763FE0C208B
:101BE000049002208DF8140003208DF815000020C9
:101BF0008DF8160001208DF8170004A91348FEF790
:101C000024FF072202211148FEF767FF0722032164
:101C10000E48FEF762FF0E4800F058F800940020CE
:101C2000ADF80400ADF80600ADF80800ADF80C0002
:101C30000C20ADF80A006946054800F01BF90121A7
:101C4000034800F036F806B010BD00000000024066
:101C50000044004010B540F225510B4800F0BBF89D
:101C600080B1094800F070F9C1B2084802880088C4
:101C7000401C064B18800648815440F2255102480A
:101C800000F008F810BD00000010014030000020F6
:101C90006C00002010B50022002340F66A14A14217
:101CA00000D100BF0A1201249440A3B2DC43048097
:101CB00010BD21B1828942F40052828104E0828900
:101CC0004DF6FF731A4082817047000010B504463C
:101CD0003248844208D101211020FFF713FE002171
:101CE0001020FFF70FFE57E02D48844209D1012153
:101CF0004804FFF7E7FD00214FF40030FFF7E2FD55
:101D00004AE02848844209D101218804FFF7DAFD1E
:101D100000214FF48020FFF7D5FD3DE022488442AA
:101D200009D10121C804FFF7CDFD00214FF40020A7
:101D3000FFF7C8FD30E01D48844209D101210805A4
:101D4000FFF7C0FD00214FF48010FFF7BBFD23E03B
:101D50001748844208D101212020FFF7D3FD00213C
:101D60002020FFF7CFFD17E01248844209D101215E
:101D70008807FFF7A7FD00214FF08040FFF7A2FD85
:101D80000AE00D48844207D101214005FFF79AFD82
:101D900000216005FFF796FD10BD00000010014016
:101DA0000044004000480040004C0040005000400B
:101DB0000014014000780040007C004002460020F2
:101DC000B1F5007F00D100BF13880B400BB101209B
:101DD00000E00020704770B5024600240023002573
:101DE000002040F66A16B14200D100BFC1F342158F
:101DF00001F01F03012606FA03F3012D02D1968993
:101E0000334006E0022D02D1168A334001E0968A63
:101E100033400C12012606FA04F41688344013B13C
:101E20000CB1012000E0002070BDF0B50346002495
:101E300000260025002040F66A17B94200D100BFF5
:101E40001846C1F3421401F01F06012707FA06F5F0
:101E5000012C01D10C3004E0022C01D1103000E043
:101E600014301AB107682F43076002E00768AF43D8
:101E70000760F0BD2DE9FF4705460E460024A14648
:101E800000BFA046B08900B100BF2C8A24F44054A2
:101E9000F08804432C82AC8941F20C608443B08802
:101EA00031890843718908430443AC81AC8A24F426
:101EB0004074B0890443AC826846FFF733FD204884
:101EC000854202D01F48854202D1DDF80C9001E026
:101ED000DDF80890A88900F4004040B109EBC90082
:101EE00000EB091031684900B0FBF1F707E009EB9E
:101EF000C90000EB091031688900B0FBF1F76420DC
:101F0000B7FBF0F004012009642101FB1078A889D7
:101F100000F4004040B1322000EBC800B0FBF1F00B
:101F200000F00700044308E0322000EB08106421B1
:101F3000B0FBF1F000F00F0004432C81BDE8FF87F7
:101F4000001001400014014001468888C0F30800D9
:101F50007047C1F308028280704700BFFEE70000AF
:101F60000FB4054B10B503A9044A029800F02CF8F1
:101F700010BC5DF814FB0000B924000868000020C4
:101F80000FB4084B10B504A902AA039800F01CF87E
:101F9000044602A9002000F048FA204610BC5DF873
:101FA00014FB00002B24000802E008C8121F08C11F
:101FB000002AFAD170477047002001E001C1121FCA
:101FC000002AFBD1704700002DE9FF4F8DB00F466E
:101FD0000546002606E025280BD0DDE90F129047C4
:101FE0006D1C761C28780028F5D111B03046BDE86C
:101FF000F08F0024A246A1460122EC4900E00443F0
:1020000015F8013F203B02FA03F00842F7D1287887
:102010002A2810D06FF02F022878A0F1300109296A
:1020200014D80AEB8A0102EB410144F0020400EBF0
:10203000010A6D1CF0E701CF5FEA000A03D544F402
:102040000054CAF1000A44F002046D1C28782E28BE
:1020500017D115F8010F44F004042A280ED06FF0B0
:102060002F022878A0F1300109290AD809EB89014B
:1020700002EB410100EB01096D1CF2E757F8049BEC
:102080006D1C28786C280FD006DC4C2817D06828E7
:102090000DD06A2814D104E0742810D07A280FD10A
:1020A0000DE044F400140AE044F4801401E044F428
:1020B00040146978814202D104F580146D1C6D1CB6
:1020C0002A786E2A1FD00CDC632A31D004DC002A67
:1020D0008BD0582A11D1A3E0642A68D0692A0CD188
:1020E00065E0732A2ED004DC6F2A73D0702A04D1E5
:1020F0009BE0752A6FD0782A6ED01046DDE90F126A
:102100009047761C50E1C4F30250022806D0032801
:1021100009D0042801CF09D0066045E101CFF117AD
:10212000C0E9006140E101CF06803DE106703BE17E
:1021300017F8040B8DF8000000208DF80100EB4625
:10214000012003E057F804BB4FF0FF3061074FF068
:10215000000102D40DE008F10101884649450FDA7B
:102160008045F8DB1BF808100029F4D108E008F1DD
:10217000010188468142FADB1BF808100029F6D1DC
:10218000DDE90F23AAEB08008146214600F036F96D
:10219000304400EB080604E0DDE90F121BF8010BE8
:1021A0009047B8F10108F7D221464846F7E00A21E6
:1021B000C4F302534FF0000B0891022B04D001CF5F
:1021C000C117032B09D00AE0FF1D27F00707F7E826
:1021D000020108E032E01FE020E000B2C117042B4A
:1021E00001D140B2C117031E71F1000307DA4FF0AD
:1021F000000CD0EB0C006CEB01012D2302E0230559
:1022000004D52B238DF82430012303E0E30701D00C
:102210002023F7E7984658E00A2110E010210EE04D
:1022200010204FF0000B08900CE010214FF0000B35
:1022300044F004044FF00809089103E008214FF02E
:10224000000B0891C4F30253022B04D001CF0021EC
:10225000032B06D006E0FF1D27F00707F7E8020171
:1022600003E080B2042B00D1C0B24FF00008230776
:102270002BD5702A07D0DDF820C08CF0100C5CEA5A
:102280000B0C05D00EE040238DF82430012308E02C
:1022900050EA010306D030238DF824308DF8252034
:1022A00002239846DDF820C08CF0080C5CEA0B0C89
:1022B0000BD150EA010301D1630706D530238DF815
:1022C00024304FF00108A9F10109582A04D038A29E
:1022D0000B9208AA0A920BE03AA2F9E75B46089A29
:1022E000FDF780FF0B9B9B5C0A9A521E0A921370AB
:1022F00050EA0102F2D10A98ADEB000000F1200B88
:10230000600702D524F4803401E04FF00109D9457B
:1023100002DDA9EB0B0000E0002000EB0B014144C3
:102320000890AAEB010AE00306D4DDE90F23214659
:10233000504600F063F806444FF0000908E009A990
:1023400011F80900DDE90F12904709F10109761C27
:10235000C145F4DBE0030CD5DDE90F2321465046EF
:1023600000F04CF8064404E0DDE90F1230209047FD
:10237000761C0899481E08900029F5DC08E00A98A8
:102380000A990078491C0A91DDE90F129047761CE2
:10239000BBF10001ABF1010BF1DC21465046DDE958
:1023A0000F2300F019F806446D1C1BE609280100F4
:1023B00030313233343536373839616263646566BB
:1023C000000000003031323334353637383941427D
:1023D00043444546000000002DE9F0410446002535
:1023E0001E461746880404D405E039462020B0472D
:1023F0006D1C641EF9D52846BDE8F0812DE9F04139
:10240000044600251E469046C80301D5302700E04B
:102410002027880404D505E041463846B0476D1CA6
:10242000641EF9D52846BDE8F0810A68531C0B608C
:102430001070704730B5044614E0B4F5FA7F02DD41
:102440004FF4FA7000E02046054605EB4501C1EB6C
:10245000C5114FF6FF7202EAC10000F007F8601BD9
:1024600084B200BF002CE8DC30BD00000146114AF8
:1024700012684A434FF0E0235A6100229A611A46DB
:10248000126942F001021A6100BF4FF0E0221069A8
:1024900000F001021AB100F48032002AF5D04FF0AA
:1024A000E022126922F001024FF0E0231A610022BB
:1024B0009A6170476000002070B504460D46E1B295
:1024C0000548FFF746FD00BF80210348FFF776FC73
:1024D0000028F9D0204670BD0044004086B0002698
:1024E00000250027FFF720FB4FF4E130FFF76CFBDE
:1024F000FDF7FEFEFEF740F9FEF732FDFDF7D6FED2
:1025000088A0FFF72DFD91A0FFF72AFDFEF72CFE16
:102510009248FEF743FE92A0FFF722FD0020FEF74F
:1025200037FE47F6FF70FEF73FFEFEF7FFFD8046E1
:10253000FEF7F6FD814643464A4600210846FEF76F
:1025400059FD4FF6E070FEF72FFEFEF7E3FDC08861
:1025500080044FEA104885A3002241461420FEF76C
:102560009BFDFEF7D7FDC08800EB80001FFA80F8C6
:1025700082A3002241462320FEF78EFD4FF6FF7016
:10258000FEF712FEFEF7C6FDC088C0EBC0001FFAC2
:1025900080F87DA3002241461920FEF77DFD40F220
:1025A000DC50FFF747FF7DA0FFF7DAFC4FF4E13086
:1025B000FEF71EFF0F2081490860FEF77FFF00280D
:1025C00006DA7FA0FFF7CCFC00207C49086005E01C
:1025D00080A0FFF7C5FC00207849086081A0FFF7C4
:1025E000BFFC8AA0FFF7BCFC002211461046FEF794
:1025F000E1FD95E08C48FEF72BF98C490870084600
:10260000007830B988488078894908708648007811
:102610004870FEF7D1FC86498870834880781C2872
:1026200007DA814880781B2805D17F48C0780528C3
:1026300001DB012000E00020054625B120217D4876
:10264000FEF777FA03E020217A48FEF774FA2DB1FD
:102650004FF480717848FEF76CFA04E04FF4807113
:102660007548FEF768FA7248807808B173A100E0F7
:1026700073A16D484078CDE900016B480378C278BA
:10268000817870A0FFF76CFC694800788DF80C0029
:10269000674840788DF80D00654880788DF80E0009
:1026A0006148C0788DF80F005F4840788DF81000C1
:1026B00000208DF811008DF812008DF8130008220B
:1026C00003A941F23420FDF779FE7F1C032F24D3A8
:1026D000002705A8FEF7E2FE0446012C13D15EB9DF
:1026E0009DF8170000909DF816309DF815209DF874
:1026F00014105BA0FFF734FC2A4605A90120FEF761
:1027000059FD012609E01EB15FA0FFF729FC002654
:102710002A4600210846FEF74DFD6420FFF78AFE99
:1027200068E700000D0A3D3D3D3D204D756C746924
:102730002D53656E736F72204578706572696D6593
:102740006E74203D3D3D3D0D0A000000496E6974E8
:10275000204C43442E2E2E0D0A00000000000020C5
:1027600020204C4344204F4B0D0A00004D756C74E3
:10277000692D53656E736F720000000045787065B7
:1027800072696D656E7400004448543131202B200D
:102790004E4643202B204C4344000000496E697490
:1027A000204E4643202855415254312C203131359A
:1027B000323030292E2E2E0D0A0000001800002085
:1027C0004E464320496E6974204641494C45440DAC
:1027D0000A0000004E464320496E6974204F4B0D9D
:1027E0000A0000003D3D3D3D204D6F6E69746F72E3
:1027F000204D6F64653A2044485431312B4E464396
:102800002B4C4344203D3D3D3D0D0A004E46433A8E
:102810002057616974696E6720666F722063617208
:10282000642E2E2E0D0A0000450000204A000020D4
:102830004200002000040240000002404F4E000011
:102840004F464600543A25642E25644320483A25D5
:10285000642E25642525204B65793A25730D0A00E1
:102860003D3D3D204341524421205549443A2530C5
:102870003258253032582530325825303258203DD4
:102880003D3D0D0A000000004E46433A2063617250
:10289000642072656D6F7665640D0A0000000000AB
:1028A0000000000000000000000000000000001810
:1028B0001818181818080008180000000000003444
:1028C000242424000000000000000000000000009C
:1028D00016247F2424247E24240000000000000805
:1028E0003E6848681C1612127C101000000000613F
:1028F000D296740810162949C60000000000000096
:102900003C646438724ACE467F0000000000001824
:10291000181818000000000000000000000000046B
:10292000081810303030301010180C04000000204F
:102930001008080C0404040C0818102000000008FB
:102940000A341C6A080000000000000000000000BB
:1029500000001818187F1818180000000000000068
:1029600000000000000000181808300000000000FF
:1029700000000000003C000000000000000000001B
:102980000000000000000018180000000000000215
:1029900006040C0808101020204000000000000071
:1029A0003C6642475B7342663C000000000000004A
:1029B00018784808080808087E0000000000000099
:1029C0003C460606040810207E00000000000000BF
:1029D0007C0606043C0202067C00000000000000A9
:1029E0000C1C14246444FF040400000000000000D8
:1029F0007E6060607E0202067C0000000000000035
:102A00001E306048764242623C0000000000000038
:102A10007E0206040C0818103000000000000000C0
:102A20003C6242361C6642423C000000000000004E
:102A30003C664242661A0204780000000000000072
:102A40000000181800000018180000000000000026
:102A500000001818000000181808300000000000DE
:102A6000000004183060100C060000000000000098
:102A7000000000007E007E0000000000000000005A
:102A80000000301804060C10200000000000003088
:102A90001C06060618100010100000000000001CA4
:102AA000224141DDB5A5A5AF94C0403C0000000027
:102AB000181C342426627E43C10000000000000080
:102AC0007C4642467C4242427C00000000000000FE
:102AD0001E204040404040603E00000000000000DA
:102AE0007C46424343434246780000000000000019
:102AF0007E6060607E6060607E000000000000001C
:102B00007E6060607E606060600000000000000029
:102B10001E604040CE4242623E00000000000000C5
:102B2000424242427E424242420000000000000017
:102B30007E181818181818187E00000000000000F1
:102B40007C04040404040444780000000000000035
:102B50004244485070584C444200000000000000BD
:102B600020202020202020203E0000000000000027
:102B70006266675F5B5BC1C1C100000000000000CE
:102B8000626272525A4A4E4646000000000000003F
:102B90003C6243C3C3C343623C000000000000002A
:102BA0007C46424246784040400000000000000061
:102BB0003C6243C3C3C343623C180F0000000000E3
:102BC0007C6662667C6C6466620000000000000047
:102BD0003E6040601C0602027C0000000000000015
:102BE0007F181818181818181800000000000000A6
:102BF00042424242424242623C0000000000000069
:102C0000C14342622624341C18000000000000006A
:102C1000C1C141495B5B76666600000000000000B0
:102C200043663418181C2466C3000000000000002E
:102C3000C14266341C18181818000000000000007B
:102C40007E02040C181020607E0000000000001CB2
:102C500010101010101010101010101C0000004068
:102C60002020101008080C04060200000000003CA0
:102C70000C0C0C0C0C0C0C0C0C0C0C3C0000000094
:102C8000181C24620000000000000000000000008A
:102C90000000000000000000000000FF0000002015
:102CA0001000000000000000000000000000000014
:102CB00000003C06023E42467A0000000000004050
:102CC00040405C62424242427C0000000000000042
:102CD00000001E20604060203E0000000000000256
:102CE00002023E62424242663A00000000000000DA
:102CF00000003C62427E40603E0000000000000F89
:102D00001810107E101010101000000000000000BD
:102D100000003F66426658403E43423C000000408F
:102D200040405C6242424242420000000000001803
:102D300018007808080808087E0000000000000459
:102D40000C007C040404040404040C7800000060FB
:102D50006060626C78706864620000000000007857
:102D600008080808080808087E00000000000000A5
:102D70000000764B4B4B4B4B4B000000000000001B
:102D800000005C624242424242000000000000003B
:102D900000003C62424342623C0000000000000030
:102DA00000005C62424242427C4040400000000021
:102DB00000003E62424242663A0202020000000007
:102DC00000006E7263606060600000000000000040
:102DD00000003E20203C06027C00000000000000B5
:102DE0001010FE10101010101E0000000000000057
:102DF00000004242424242663A00000000000000E9
:102E0000000043426624341818000000000000004F
:102E10000000C1C15B5A5E66660000000000000051
:102E2000000062261C181C26620000000000000042
:102E3000000043426624341C181830E000000000F3
:102E400000007E060C1810207E0000000000000E1E
:102E500018101010307010101010180E0000080814
:102E600008080808080808080808080800000030D2
:102E7000180808080C0E08080808183000000000A0
:102E800000000000714B060000000000AC2E00089E
:102E9000000000206C000000A81F0008182F000888
:102EA0006C000020F4050000B81F00089C280008F2
:102EB000080010000000002002000000FFFFF000EA
:102EC00040010000000000000000000000000000C1
:102ED000FFFFFFFFFFFFFFFFFFFFFFFF00000000FE
:102EE00000000102030401020304060708090000B0
:102EF0000000000000000000007A030A000000004B
:102F00000000000001020304060708090000000099
:082F10000000000000000000B9
:040000050800018965
:00000001FF
