:020000040800F2
:10000000300400209D010008950A00088D0A0008B0
:10001000910A0008870200082B1000080000000069
:100020000000000000000000000000003D0C00087F
:10003000B509000800000000110B0008550D00086C
:10004000B7010008B7010008B7010008B7010008B0
:10005000B7010008B7010008B7010008B7010008A0
:10006000B7010008B7010008B7010008B701000890
:10007000B7010008B7010008B7010008B701000880
:10008000B7010008B7010008B7010008B701000870
:1000900095030008B7010008B7010008B701000880
:1000A000B7010008B7010008B7010008B701000850
:1000B000B7010008B7010008B7010008B701000840
:1000C000B7010008B7010008B7010008B701000830
:1000D000B7010008B7010008A50E0008B701000825
:1000E000B7010008B7010008B7010008B701000810
:1000F000B7010008B7010008B7010008B701000800
:10010000B7010008B7010008B7010008B7010008EF
:10011000B7010008B7010008B7010008B7010008DF
:10012000B7010008B7010008B7010008B7010008CF
:10013000B7010008B7010008B7010008B7010008BF
:10014000B7010008B7010008B7010008B7010008AF
:10015000B7010008B7010008B7010008B70100089F
:10016000B7010008B7010008B7010008B70100088F
:10017000B7010008B7010008B7010008B70100087F
:10018000B7010008B7010008DFF80CD000F04AF80A
:100190000048004745150008300400200648804705
:1001A00006480047FEE7FEE7FEE7FEE7FEE7FEE75C
:1001B000FEE7FEE7FEE7FEE7910D00088901000873
:1001C0002DE9F05F0546002092469B46884606468C
:1001D000814640241BE0284641464746224600F01F
:1001E00042F853465A46C01A914110D31146184658
:1001F000224600F029F82D1A67EB01084F462246E7
:100200000120002100F020F817EB00094E41201ECC
:10021000A4F10104DFDC484631462A464346BDE8E6
:10022000F09F0000064C074D06E0E06840F0010337
:1002300094E8070098471034AC42F6D3FFF7A8FFC4
:1002400080150008A0150008202A04DB203A00FAD7
:1002500002F1002070479140C2F1200320FA03F31D
:10026000194390407047202A04DB203A21FA02F01B
:100270000021704721FA02F3D040C2F120029140E0
:1002800008431946704700BFFEE71FB500208DF8F0
:100290000A008DF80B0001208DF80C000020ADF84D
:1002A0000000ADF80200ADF80400ADF80600ADF8AE
:1002B000080001208DF80D00684600F009F91FBD07
:1002C00000B587B00020059006900290039004903E
:1002D0000121084600F01EFC0121480600F02AFC1E
:1002E0004FF4C050059002208DF8180000208DF8C2
:1002F0001A008DF81B0003208DF8190005A923486A
:1003000000F059FB09220B21204800F09CFB092238
:100310000C211E4800F097FB0620ADF808000120D4
:100320008DF80A0000208DF80B0005208DF80C00D8
:1003300006208DF80D0000208DF80E008DF80F00BE
:100340008DF8100001208DF8110000208DF81200AA
:100350008DF8130002A90E4800F047F9012202218E
:100360000B4800F039F914208DF8040001208DF8B5
:10037000050000208DF8060001208DF8070001A877
:1003800000F08AFBFFF781FF07B000BD00000240CC
:100390000064004030B585B0002400256A46002185
:1003A0000E4800F0ACF99DF8080008B9009800E08C
:1003B0000198054629460AA000F03AFE002406E00E
:1003C0000DF10B00015D0DA000F032FE641C082C45
:1003D000F6DB0CA000F02CFE05B030BD0064004040
:1003E0000A526563762043414E49443A30782530BD
:1003F000385820446174613A5B000000253032585F
:10040000200000005D0D0A002DE9F04186B0054690
:100410000E4617460024A0460195029504208DF84B
:100420000C0000208DF80D00F8B28DF80E00294662
:1004300019A000F0FDFD00BF08E0315D1CA000F038
:10044000F7FD315D0DF10F000155641CBC42F4D382
:1004500019A000F0EDFD01A9184800F0C8F9804688
:10046000002405E0641C40F6FF70844200D305E0E0
:100470004146124800F04EFA0028F3D000BF40F683
:10048000FF70844205D30EA000F0D2FD06B0BDE897
:10049000F08100BFFAE7000053656E642043414ECF
:1004A00020446174613A5B3078253034583A20003A
:1004B00025303258200000005D0D0A000064004025
:1004C00053656E64204661696C6564210D0A000005
:1004D00010B50021837A012202FA03F13D4A126825
:1004E00042F001023B4B1A603A4A1C3212688A43BE
:1004F000384B1C331A60027BCAB9364A0C32126878
:100500008A43344B0C331A604288C38842EA03435F
:10051000304A4032847A42F834300288838842EA92
:1005200003432C4A4032847A02EBC4025360027BBC
:10053000012A19D1274A0C3212680A43254B0C3381
:100540001A604288038842EA0343224A4032847A8E
:1005500042F83430C288838842EA03431D4A40325D
:10056000847A02EBC4025360C27A3AB9194A121D66
:1005700012688A43174B1B1D1A6006E0154A121DAC
:1005800012680A43134B1B1D1A60028932B9114AC3
:10059000143212688A430F4B14331A600289012AFD
:1005A00006D10C4A143212680A430A4B14331A60FB
:1005B000427B012A06D1074A1C3212680A43054BC6
:1005C0001C331A60034A126822F00102014B1A60C0
:1005D00010BD0000006600401AB143690B4343613F
:1005E00002E043698B434361704730B50246002007
:1005F0000023146824F002041460146844F0010419
:10060000146000E05B1C546804F001041CB94FF650
:10061000FF74A342F6D1546804F001040CB9002021
:100620006CE08C79012C04D1146844F080041460CF
:1006300003E0146824F080041460CC79012C04D108
:10064000146844F04004146003E0146824F040048B
:1006500014600C7A012C04D1146844F02004146056
:1006600003E0146824F0200414604C7A012C04D1B7
:10067000146844F01004146003E0146824F01004BB
:1006800014608C7A012C04D1146844F008041460BE
:1006900003E0146824F008041460CC7A012C04D11F
:1006A000146844F00404146003E0146824F00404A3
:1006B00014608C78A407CD7844EA05640D7944EA87
:1006C00005444D7944EA05540D886D1E2C43D461D0
:1006D000146824F001041460002300E05B1C5468DB
:1006E00004F001041CB14FF6FF74A342F6D1546824
:1006F00004F001040CB1002000E0012030BD10B571
:1007000000F5D87303EB01131B6803F004031372A5
:10071000137A53B900F5D87303EB01131B6840F249
:10072000FF7404EA5353136009E000F5D87303EB38
:1007300001131B686FF0604404EAD303536000F5B3
:10074000D87303EB01131B6803F00203537200F527
:10075000D87303EB01135B6803F00F03937200F58A
:10076000D87303EB01135B681B0AD37400F5D873CD
:1007700003EB01139B68D37200F5D87303EB0113ED
:100780009B681C0A147300F5D87303EB01139B6874
:100790001C0C547300F5D87303EB01139B681B0EFC
:1007A000937300F5D87303EB0113DB68D37300F583
:1007B000D87303EB0113DB681C0A147400F5D873BB
:1007C00003EB0113DB681C0C547400F5D87303EBC6
:1007D0000113DB681B0E937421B9C36843F0200337
:1007E000C36003E0036943F02003036110BD10B54B
:1007F00002460020936803F08063B3F1806F00D15C
:1008000010E0936803F00063B3F1006F01D10120A1
:1008100008E0936803F08053B3F1805F01D10220B8
:1008200000E00420042874D002F5C07303EB001329
:100830001B6803F0010402F5C07303EB00131C6096
:100840000B7A7BB94B7A0C8843EA445302F5C074A7
:1008500004EB00142468234302F5C07404EB001475
:10086000236010E00B7A4C6843EAC4034C7A2343BC
:1008700002F5C07404EB00142468234302F5C0742D
:1008800004EB001423608B7A03F00F038B7202F5E4
:10089000C07303EB00135B6823F00F0402F5C07311
:1008A00003EB00135C6002F5C07303EB00135B689D
:1008B0008C7A234302F5C07404EB001463608B7BD5
:1008C0001C064B7B44EA03440B7B44EA0323CC7AAB
:1008D000234302F5C07404EB0014A3608B7C1C0658
:1008E0004B7C44EA03440B7C44EA0323CC7B234344
:1008F00002F5C07404EB0014E36002F5C07303EB6F
:1009000000131B6843F0010402F5C07303EB0013EE
:100910001C6010BD10B50246002321B1012907D08B
:1009200002290FD109E090681D4C00EA04030BE096
:1009300090681C4C00EA040306E090681A4C00EA38
:10094000040301E0002300BF00BF184C181BA342A2
:1009500016D007DC83B16FF08060184470B10228B4
:1009600018D111E0B0F5007F10D0114C204448B1EF
:10097000B0F5003F0ED10BE002230DE000230BE0A9
:10098000002309E0002307E0012305E0012303E041
:10099000012301E0002300BF00BFD8B210BD00005A
:1009A0000300000400030008000003100001000819
:1009B0000001FFF77047F0B50A460021002300242C
:1009C00000BF3DE0012505FA01F3156805EA0304BF
:1009D0009C4234D105684F000326BE40B5430560F4
:1009E00015794E00B5400668354305601579012D2F
:1009F00002D01579022D16D185684F000326BE401E
:100A0000B543856055794E00B540866835438560AD
:100A1000456801268E40B5434560456896798E400D
:100A2000B6B235434560C5684F000326BE40B543A6
:100A3000C560D5794E00B540C6683543C560491CD0
:100A40001029BFD3F0BDF0B5002300244D07ED0EF3
:100A500002FA05F3CE1000F1200555F826504E0796
:100A6000F70E0F26BE40B543CF1000F1200646F822
:100A70002750CE1000F1200555F8265045EA030412
:100A8000CE1000F1200545F82640F0BD00BFFEE77E
:100A900000BFFEE77047000070B5002100230F2261
:100AA000C4781CB3174C246804F4E064C4F5E06413
:100AB000C4F30721C1F10404E3B20A4144789C4025
:100AC000E1B28478144021430C07210E0E4C0578C6
:100AD0006155047804F01F050124AC4005786D11C0
:100AE000AD0005F1E025C5F8004109E0047804F007
:100AF0001F050124AC40054D0678761145F82640C7
:100B000070BD00000CED00E000E400E080E100E0DA
:100B10007047000029B1064A12680243044B1A606C
:100B200004E0034A12688243014B1A6070470000D8
:100B30003038024029B1064A12680243044B1A6059
:100B400004E0034A12688243014B1A6070470000B8
:100B500040380240F0B50021002200240225002682
:100B60000223324F3F6807F00C0121B1042905D060
:100B7000082937D105E02E4F076036E02D4F07607A
:100B800033E02A4F3F1F3F68C7F38056274F3F1F70
:100B90003F6807F03F036EB1264FB7FBF3F7DFF86E
:100BA0008CC0ACF1040CDCF800C0CCF3881C07FB53
:100BB0000CF40CE01E4FB7FBF3F7DFF870C0ACF19C
:100BC000040CDCF800C0CCF3881C07FB0CF4174FB6
:100BD0003F1F3F68C7F301477F1C7D00B4FBF5F75B
:100BE000076002E0124F076000BF00BF0F4F3F6871
:100BF00007F0F0010909104F7A5C0768D740476099
:100C00000A4F3F6807F4E051890A0B4F7A5C476846
:100C1000D7408760054F3F6807F46041490B064F96
:100C20007A5C4768D740C760F0BD000008380240D2
:100C30000024F40000127A00000000207047000039
:100C40000CB50020019000903448006840F48030DA
:100C50003249086000BF3148006800F4003000905D
:100C60000198401C0190009818B90198B0F5A04F68
:100C7000F1D12A48006800F4003010B10120009042
:100C800001E0002000900098012846D12348403020
:100C9000006840F0805021494031086020480068D9
:100CA00040F440401E4908601C48083000681B4959
:100CB000083108600846006840F4004008600846B3
:100CC000006840F4A05008601648091F0860081F1B
:100CD000006840F08070091F086000BF0F4800687E
:100CE00000F000700028F9D040F205700E4908604D
:100CF0000A480830006820F00300084908310860FD
:100D00000846006840F00200086000BF0348083051
:100D1000006800F00C000828F8D10CBD0038024033
:100D20000070004008544007003C0240042808D1ED
:100D30004FF0E021096941F004014FF0E022116118
:100D400007E04FF0E021096921F004014FF0E022B3
:100D5000116170477047000010B56FF00400FFF795
:100D6000E5FF074800680749B0FBF1F00649086055
:100D7000084600684FF47A7148430449086010BD82
:100D80001000002000127A0024000020280000201B
:100D900010B51548006840F4700013490860134806
:100DA000006840F001001149086000200F49083137
:100DB00008600E4800680E4908400C4908600D485C
:100DC000091D0860081F006820F48020091F0860C2
:100DD000002006490C310860FFF732FF4FF0006039
:100DE00001498039086010BD88ED00E000380240FC
:100DF000FFFFF6FE1030002410B588B00446012134
:100E00000846FFF787FE01214804FFF793FE0722FB
:100E100002212248FFF717FE072203211F48FFF790
:100E200012FE0C20069002208DF81C008DF81D008B
:100E300000208DF81E0001208DF81F0006A917481C
:100E4000FFF7B9FD02940020ADF80C00ADF80E00DC
:100E5000ADF81000ADF814000C20ADF8120002A996
:100E60000F4800F06FF826208DF8040003208DF85D
:100E700005008DF8060001208DF8070001A8FFF796
:100E80000BFE012240F22551054800F036F8012101
:100E9000034800F019F808B010BD0000000002403F
:100EA0000044004010B500242021064800F018F846
:100EB00038B1044800F0B0F8C4B22146014800F04F
:100EC000B0F810BD0044004021B1828942F40052C4
:100ED000828104E082894DF6FF731A408281704757
:100EE00002460020B1F5007F00D100BF13880B40FF
:100EF0000BB1012000E000207047F0B5034600244C
:100F000000260025002040F66A17B94200D100BF34
:100F10001846C1F3421401F01F06012707FA06F52F
:100F2000012C01D10C3004E0022C01D1103000E082
:100F300014301AB107682F43076002E00768AF4317
:100F40000760F0BD2DE9FF4705460E460024A14687
:100F500000BFA046B08900B100BF2C8A24F44054E1
:100F6000F08804432C82AC8941F20C608443B08841
:100F700031890843718908430443AC81AC8A24F465
:100F80004074B0890443AC826846FFF7E3FD204813
:100F9000854202D01F48854202D1DDF80C9001E065
:100FA000DDF80890A88900F4004040B109EBC900C1
:100FB00000EB091031684900B0FBF1F707E009EBDD
:100FC000C90000EB091031688900B0FBF1F764201B
:100FD000B7FBF0F004012009642101FB1078A88917
:100FE00000F4004040B1322000EBC800B0FBF1F04B
:100FF00000F00700044308E0322000EB08106421F1
:10100000B0FBF1F000F00F0004432C81BDE8FF8736
:10101000001001400014014001468888C0F3080018
:101020007047C1F308028280704700BFFEE70000EE
:101030000FB4054B10B503A9044A029800F018F844
:1010400010BC5DF814FB0000211500082C000020E6
:1010500002E008C8121F08C1002AFAD17047704781
:10106000002001E001C1121F002AFBD170470000DF
:101070002DE9FF4F8DB00F460546002606E02528D6
:101080000BD0DDE90F1290476D1C761C28780028E4
:10109000F5D111B03046BDE8F08F0024A246A1463C
:1010A0000122EC4900E0044315F8013F203B02FA1D
:1010B00003F00842F7D128782A2810D06FF02F02C9
:1010C0002878A0F13001092914D80AEB8A0102EB33
:1010D000410144F0020400EB010A6D1CF0E701CF6E
:1010E0005FEA000A03D544F40054CAF1000A44F050
:1010F00002046D1C28782E2817D115F8010F44F032
:1011000004042A280ED06FF02F022878A0F13001B5
:1011100009290AD809EB890102EB410100EB010919
:101120006D1CF2E757F8049B6D1C28786C280FD0D3
:1011300006DC4C2817D068280DD06A2814D104E0AA
:10114000742810D07A280FD10DE044F400140AE07E
:1011500044F4801401E044F440146978814202D1DF
:1011600004F580146D1C6D1C2A786E2A1FD00CDCCF
:10117000632A31D004DC002A8BD0582A11D1A3E095
:10118000642A68D0692A0CD165E0732A2ED004DC69
:101190006F2A73D0702A04D19BE0752A6FD0782A09
:1011A0006ED01046DDE90F129047761C50E1C4F373
:1011B0000250022806D0032809D0042801CF09D004
:1011C000066045E101CFF117C0E9006140E101CFC0
:1011D00006803DE106703BE117F8040B8DF8000036
:1011E00000208DF80100EB46012003E057F804BB16
:1011F0004FF0FF3061074FF0000102D40DE008F11D
:101200000101884649450FDA8045F8DB1BF80810D4
:101210000029F4D108E008F1010188468142FADB97
:101220001BF808100029F6D1DDE90F23AAEB08000E
:101230008146214600F036F9304400EB080604E010
:10124000DDE90F121BF8010B9047B8F10108F7D246
:1012500021464846F7E00A21C4F302534FF0000B41
:101260000891022B04D001CFC117032B09D00AE04B
:10127000FF1D27F00707F7E8020108E032E01FE052
:1012800020E000B2C117042B01D140B2C117031EE8
:1012900071F1000307DA4FF0000CD0EB0C006CEB9F
:1012A00001012D2302E0230504D52B238DF82430E2
:1012B000012303E0E30701D02023F7E7984658E035
:1012C0000A2110E010210EE010204FF0000B0890D2
:1012D0000CE010214FF0000B44F004044FF008091B
:1012E000089103E008214FF0000B0891C4F302536A
:1012F000022B04D001CF0021032B06D006E0FF1DF6
:1013000027F00707F7E8020103E080B2042B00D1C1
:10131000C0B24FF0000823072BD5702A07D0DDF8A4
:1013200020C08CF0100C5CEA0B0C05D00EE04023C2
:101330008DF82430012308E050EA010306D0302361
:101340008DF824308DF8252002239846DDF820C042
:101350008CF0080C5CEA0B0C0BD150EA010301D1B4
:10136000630706D530238DF824304FF00108A9F12A
:101370000109582A04D038A20B9208AA0A920BE05D
:101380003AA2F9E75B46089AFEF71AFF0B9B9B5CB3
:101390000A9A521E0A92137050EA0102F2D10A9878
:1013A000ADEB000000F1200B600702D524F480347F
:1013B00001E04FF00109D94502DDA9EB0B0000E087
:1013C000002000EB0B0141440890AAEB010AE00366
:1013D00006D4DDE90F232146504600F063F80644A9
:1013E0004FF0000908E009A911F80900DDE90F1222
:1013F000904709F10109761CC145F4DBE0030CD5E7
:10140000DDE90F232146504600F04CF8064404E085
:10141000DDE90F1230209047761C0899481E08908D
:101420000029F5DC08E00A980A990078491C0A911D
:10143000DDE90F129047761CBBF10001ABF1010B07
:10144000F1DC21465046DDE90F2300F019F806448F
:101450006D1C1BE609280100303132333435363734
:1014600038396162636465660000000030313233F0
:101470003435363738394142434445460000000090
:101480002DE9F041044600251E461746880404D481
:1014900005E039462020B0476D1C641EF9D528466A
:1014A000BDE8F0812DE9F041044600251E46904636
:1014B000C80301D5302700E02027880404D505E0C3
:1014C00041463846B0476D1C641EF9D52846BDE834
:1014D000F08100000146114A12684A434FF0E023B0
:1014E0005A6100229A611A46126942F001021A6199
:1014F00000BF4FF0E022106900F001021AB100F4C1
:101500008032002AF5D04FF0E022126922F0010269
:101510004FF0E0231A6100229A61704728000020F2
:1015200070B504460D46E1B20548FFF77AFD00BFED
:1015300080210348FFF7D4FC0028F9D0204670BD75
:10154000004400401CB50CA103C9CDE90001FFF720
:1015500003FC4FF4E130FFF74FFCFEF7B1FE09E06A
:101560000822694641F23420FEF74EFF41F28830EE
:10157000FFF7B0FFF4E70000887766554433221187
:10158000A0150008000000203000000050100008E6
:10159000D015000830000020000400006010000892
:1015A0000000000001020304010203040607080909
:1015B000007A030A0000000000000000010203049A
:1015C00006070809000000000000000000000000FD
:040000050800018965
:00000001FF
