:020000040800F2
:10000000180400209D01000805050008BB04000835
:1000100001050008110200083B0A0008000000006A
:10002000000000000000000000000000AD06000815
:10003000C903000800000000810500089D070008B2
:10004000B7010008B7010008B7010008B7010008B0
:10005000B7010008B7010008B7010008B7010008A0
:10006000B7010008B7010008B7010008B701000890
:10007000B7010008B7010008B7010008B701000880
:10008000B7010008B7010008B7010008B701000870
:10009000B7010008B7010008B7010008B701000860
:1000A000B7010008B7010008B7010008B701000850
:1000B000B7010008B7010008B7010008B701000840
:1000C000B7010008B7010008B7010008B701000830
:1000D000B7010008B7010008B5080008B70100081B
:1000E000B7010008B7010008B7010008B701000810
:1000F000B7010008B7010008B7010008B701000800
:10010000B7010008B7010008B7010008B7010008EF
:10011000B7010008B7010008B7010008B7010008DF
:10012000B7010008B7010008B7010008B7010008CF
:10013000B7010008B7010008B7010008B7010008BF
:10014000B7010008B7010008B7010008B7010008AF
:10015000B7010008B7010008B7010008B70100089F
:10016000B7010008B7010008B7010008B70100088F
:10017000B7010008B7010008B7010008B70100087F
:10018000B7010008B7010008DFF80CD000F02EF826
:1001900000480047350C0008180400200648804736
:1001A00006480047FEE7FEE7FEE7FEE7FEE7FEE75C
:1001B000FEE7FEE7FEE7FEE7A10700088901000869
:1001C00030B50B46014600202022012409E021FA27
:1001D00002F59D4205D303FA02F5491B04FA02F524
:1001E0002844151EA2F10102F1DC30BD064C074D7A
:1001F00006E0E06840F0010394E8070098471034F7
:10020000AC42F6D3FFF7C4FF3C0D00085C0D0008BC
:1002100000BFFEE710B50121102000F0B3F900F097
:100220001BF84021014800F046F910BD00100240C3
:100230001CB54020009000208DF804008DF80600C9
:100240008DF8070001208DF805006946014800F08F
:10025000BCF81CBD001002401CB5402000900120DD
:100260008DF8040000208DF806008DF807000120AD
:100270008DF805006946024800F0A7F81CBD000093
:100280000010024010B56421002000F081F8002821
:1002900002DA4FF0FF3010BD6421012000F078F841
:1002A000002802DA4FF0FF30F5E7282000F0A1FC2B
:1002B0004021044800F0F4F8012800D1EBE70020C9
:1002C000E9E700000010024070B50024002500BFDF
:1002D00007E06006040EFFF7D5FF2043C4B2681C98
:1002E000C5B2082DF5DB204670BD000010B50446F0
:1002F00014B94FF0FF3010BDFFF7AEFF4021234887
:1003000000F0D9F84021214800F0D3F8122000F085
:1003100061FC40211D4800F0CEF81E2000F069FC71
:10032000FFF786FFC821002000F032F8002802DA2B
:100330004FF0FF30DFE76421012000F029F80028AA
:1003400002DA4FF0FF30D6E7502000F052FCFFF702
:10035000BBFF2070FFF7B8FF6070FFF7B5FFA0701C
:10036000FFF7B2FFE070FFF7AFFF207120786178F0
:100370000844A1780844E17808442179884202D0F1
:100380004FF0FF30B7E70020B5E700000010024053
:1003900070B506460C46002504E0681CC5B2012075
:1003A00000F027FC4021074800F07AF8B04201D065
:1003B000A542F2D3A54202D34FF0FF3070BD00201A
:1003C000FCE70000001002407047F0B50A4600212B
:1003D0000023002400BF3DE0012505FA01F3156864
:1003E00005EA03049C4234D105684F000326BE4051
:1003F000B543056015794E00B54006683543056084
:100400001579012D02D01579022D16D185684F007E
:100410000326BE40B543856055794E00B5408668D9
:1004200035438560456801268E40B5434560456883
:1004300096798E40B6B235434560C5684F000326B5
:10044000BE40B543C560D5794E00B540C66835435A
:10045000C560491C1029BFD3F0BDF0B500230024AE
:100460004D07ED0E02FA05F3CE1000F1200555F808
:1004700026504E07F70E0F26BE40B543CF1000F1B1
:10048000200646F82750CE1000F1200555F82650DA
:1004900045EA0304CE1000F1200545F82640F0BDE2
:1004A0000246002013690B400BB1012000E0002040
:1004B0007047418370470183704700BFFEE700002B
:1004C0001CB50121202000F05DF84FF40070009071
:1004D00001208DF8040000208DF8060001208DF821
:1004E000050000208DF8070069460448FFF76DFFFE
:1004F0004FF400710148FFF7DEFF1CBD00140240FD
:1005000000BFFEE77047000070B5002100230F22F6
:10051000C4781CB3174C246804F4E064C4F5E064A8
:10052000C4F30721C1F10404E3B20A4144789C40BA
:10053000E1B28478144021430C07210E0E4C05785B
:100540006155047804F01F050124AC4005786D1155
:10055000AD0005F1E025C5F8004109E0047804F09C
:100560001F050124AC40054D0678761145F826405C
:1005700070BD00000CED00E000E400E080E100E070
:100580007047000029B1064A12680243044B1A6002
:1005900004E0034A12688243014B1A60704700006E
:1005A0003038024029B1064A12680243044B1A60EF
:1005B00004E0034A12688243014B1A60704700004E
:1005C00040380240F0B50021002200240225002618
:1005D0000223324F3F6807F00C0121B1042905D0F6
:1005E000082937D105E02E4F076036E02D4F076010
:1005F00033E02A4F3F1F3F68C7F38056274F3F1F06
:100600003F6807F03F036EB1264FB7FBF3F7DFF803
:100610008CC0ACF1040CDCF800C0CCF3881C07FBE8
:100620000CF40CE01E4FB7FBF3F7DFF870C0ACF131
:10063000040CDCF800C0CCF3881C07FB0CF4174F4B
:100640003F1F3F68C7F301477F1C7D00B4FBF5F7F0
:10065000076002E0124F076000BF00BF0F4F3F6806
:1006600007F0F0010909104F7A5C0768D74047602E
:100670000A4F3F6807F4E051890A0B4F7A5C4768DC
:10068000D7408760054F3F6807F46041490B064F2C
:100690007A5C4768D740C760F0BD00000838024068
:1006A0000024F40000127A000000002070470000CF
:1006B0000CB50020019000903448006840F4803070
:1006C0003249086000BF3148006800F400300090F3
:1006D0000198401C0190009818B90198B0F5A04FFE
:1006E000F1D12A48006800F4003010B101200090D8
:1006F00001E0002000900098012846D123484030B6
:10070000006840F08050214940310860204800686E
:1007100040F440401E4908601C48083000681B49EE
:10072000083108600846006840F400400860084648
:10073000006840F4A05008601648091F0860081FB0
:10074000006840F08070091F086000BF0F48006813
:1007500000F000700028F9D040F205700E490860E2
:100760000A480830006820F0030008490831086092
:100770000846006840F00200086000BF03480830E7
:10078000006800F00C000828F8D10CBD00380240C9
:100790000070004008544007003C024070470000D1
:1007A00010B51548006840F47000134908601348FC
:1007B000006840F001001149086000200F4908312D
:1007C00008600E4800680E4908400C4908600D4852
:1007D000091D0860081F006820F48020091F0860B8
:1007E000002006490C310860FFF762FF4FF00060FF
:1007F00001498039086010BD88ED00E000380240F2
:10080000FFFFF6FE1030002410B588B00446012129
:100810000846FFF7B7FE01214804FFF7C3FE072291
:1008200002212248FFF719FE072203211F48FFF784
:1008300014FE0C20069002208DF81C008DF81D007F
:1008400000208DF81E0001208DF81F0006A9174812
:10085000FFF7BBFD02940020ADF80C00ADF80E00D0
:10086000ADF81000ADF814000C20ADF8120002A98C
:100870000F4800F06FF826208DF8040003208DF853
:1008800005008DF8060001208DF8070001A8FFF78C
:100890003BFE012240F22551054800F036F80121C7
:1008A000034800F019F808B010BD00000000024035
:1008B0000044004010B500242021064800F018F83C
:1008C00038B1044800F0B0F8C4B22146014800F045
:1008D000B0F810BD0044004021B1828942F40052BA
:1008E000828104E082894DF6FF731A40828170474D
:1008F00002460020B1F5007F00D100BF13880B40F5
:100900000BB1012000E000207047F0B50346002441
:1009100000260025002040F66A17B94200D100BF2A
:100920001846C1F3421401F01F06012707FA06F525
:10093000012C01D10C3004E0022C01D1103000E078
:1009400014301AB107682F43076002E00768AF430D
:100950000760F0BD2DE9FF4705460E460024A1467D
:1009600000BFA046B08900B100BF2C8A24F44054D7
:10097000F08804432C82AC8941F20C608443B08837
:1009800031890843718908430443AC81AC8A24F45B
:100990004074B0890443AC826846FFF713FE2048D8
:1009A000854202D01F48854202D1DDF80C9001E05B
:1009B000DDF80890A88900F4004040B109EBC900B7
:1009C00000EB091031684900B0FBF1F707E009EBD3
:1009D000C90000EB091031688900B0FBF1F7642011
:1009E000B7FBF0F004012009642101FB1078A8890D
:1009F00000F4004040B1322000EBC800B0FBF1F041
:100A000000F00700044308E0322000EB08106421E6
:100A1000B0FBF1F000F00F0004432C81BDE8FF872C
:100A2000001001400014014001468888C0F308000E
:100A30007047C1F308028280704700BFFEE70000E4
:100A40000FB4054B10B503A9044A029800F018F83A
:100A500010BC5DF814FB0000110C00081000002011
:100A600002E008C8121F08C1002AFAD17047704777
:100A7000002001E001C1121F002AFBD170470000D5
:100A80002DE9FF4F89B09B460446002506E0252846
:100A90000BD05A460B999047641C6D1C2078002897
:100AA000F5D10DB02846BDE8F08F0027B8460122E9
:100AB000474900E0074314F8013F203B02FA03F0E6
:100AC0000842F7D120782E2819D114F8010F47F0E9
:100AD00004072A280ED06FF02F022078A0F13001F1
:100AE00009290CD808EB880102EB410100EB010851
:100AF000641CF2E70A98641C50F8048B0A90207872
:100B00000028CED0642808D0692806D075281ED0C9
:100B10005A460B9990476D1C58E00A994FF00A0904
:100B200001C90A91002802DA40422D2102E039056C
:100B300004D52B218DF82010012103E0F90704D002
:100B40002021F7E78A4608AE0DE00021FAE70A996E
:100B50004FF00A0901C90A91F7E74946FFF730FB50
:100B6000303106F8011D0028F7D1ADEB060000F189
:100B70002009780701D44FF00108C84502DDA8EB31
:100B8000090000E000208046002706E008A85A4639
:100B9000C05D0B9990476D1C7F1C5745F6DB04E048
:100BA00030205A460B9990476D1CB8F10001A8F10E
:100BB0000108F5DC05E016F8010B5A460B99904741
:100BC0006D1CB9F10001A9F10109F4DC641C65E7B1
:100BD0000928010007E048F2084100BF0A1EA1F100
:100BE000010399B2FAD1021EA0F1010398B2F2D129
:100BF000704706E01F2100BF0A1EA1F1010399B250
:100C0000FAD1021EA0F1010398B2F3D1704700009F
:100C100070B504460D46E1B20548FFF70AFF00BF74
:100C200080210348FFF764FE0028F9D0204670BDFC
:100C3000004400402DED028B84B04FF4E130FFF70B
:100C4000E3FDFFF7E7FAFFF73BFC2BA0FFF7F8FE09
:100C50004FF47A70FFF7BEFF4CE002A8FFF746FBA7
:100C6000002840D19DF80A0000EE100AB8EE400AB4
:100C70009DF80B0000EE900AF8EE600A9FED221A34
:100C800000EE810AB0EE408AB3EE090AB4EEC08AE3
:100C9000F1EE10FA15DB002410E04FF400711B4850
:100CA000FFF707FC9620FFF795FF4FF400711748F8
:100CB000FFF701FC9620FFF78DFF641C0A2CECDB8C
:100CC00004E04FF400711148FFF7F5FB9DF80B00AD
:100CD00000909DF80A309DF809209DF808100CA09E
:100CE000FFF7AEFE02E010A0FFF7AAFE42F210707E
:100CF000FFF770FFB1E70000444854313120496EDE
:100D00006974204F4B0D0A00CDCCCC3D001402403D
:100D100048554D493A25642E25645F54454D503A57
:100D200025642E25640D0A005265616420444854F0
:100D30003131204552524F52210D0A005C0D0008FE
:100D40000000002014000000600A0008700D000878
:100D50001400002004040000700A000800000000D5
:100D60000102030401020304060708090000000051
:040000050800018965
:00000001FF
